{
  "_format": "hh-sol-artifact-1",
  "contractName": "MiranCore",
  "sourceName": "contracts/MiranCore.sol",
  "abi": [
    {
      "inputs": [],
      "stateMutability": "nonpayable",
      "type": "constructor"
    },
    {
      "anonymous": false,
      "inputs": [
        {
          "indexed": false,
          "internalType": "address",
          "name": "collectionAddress",
          "type": "address"
        },
        {
          "indexed": false,
          "internalType": "uint256",
          "name": "tokenId",
          "type": "uint256"
        },
        {
          "indexed": false,
          "internalType": "address",
          "name": "bidder",
          "type": "address"
        },
        {
          "indexed": false,
          "internalType": "uint256",
          "name": "price",
          "type": "uint256"
        },
        {
          "indexed": false,
          "internalType": "uint256",
          "name": "endingTime",
          "type": "uint256"
        }
      ],
      "name": "Bid",
      "type": "event"
    },
    {
      "anonymous": false,
      "inputs": [
        {
          "indexed": false,
          "internalType": "address",
          "name": "collectionAddress",
          "type": "address"
        },
        {
          "indexed": false,
          "internalType": "uint256",
          "name": "tokenId",
          "type": "uint256"
        },
        {
          "indexed": false,
          "internalType": "address",
          "name": "bidder",
          "type": "address"
        },
        {
          "indexed": false,
          "internalType": "uint256",
          "name": "price",
          "type": "uint256"
        }
      ],
      "name": "Claimed",
      "type": "event"
    },
    {
      "inputs": [],
      "name": "BASE_AUCTION_DURATION",
      "outputs": [
        {
          "internalType": "uint256",
          "name": "",
          "type": "uint256"
        }
      ],
      "stateMutability": "view",
      "type": "function"
    },
    {
      "inputs": [],
      "name": "BID_AUCTION_DURATION",
      "outputs": [
        {
          "internalType": "uint256",
          "name": "",
          "type": "uint256"
        }
      ],
      "stateMutability": "view",
      "type": "function"
    },
    {
      "inputs": [],
      "name": "MIN_REQUIRED_PRICE",
      "outputs": [
        {
          "internalType": "uint256",
          "name": "",
          "type": "uint256"
        }
      ],
      "stateMutability": "view",
      "type": "function"
    },
    {
      "inputs": [
        {
          "internalType": "bytes32",
          "name": "",
          "type": "bytes32"
        }
      ],
      "name": "auctionById",
      "outputs": [
        {
          "internalType": "address",
          "name": "creator",
          "type": "address"
        },
        {
          "internalType": "address",
          "name": "collectionAddress",
          "type": "address"
        },
        {
          "internalType": "uint256",
          "name": "tokenId",
          "type": "uint256"
        },
        {
          "internalType": "uint256",
          "name": "endingTime",
          "type": "uint256"
        },
        {
          "internalType": "uint256",
          "name": "price",
          "type": "uint256"
        },
        {
          "internalType": "address",
          "name": "bidder",
          "type": "address"
        }
      ],
      "stateMutability": "view",
      "type": "function"
    },
    {
      "inputs": [
        {
          "internalType": "uint256",
          "name": "",
          "type": "uint256"
        }
      ],
      "name": "auctions",
      "outputs": [
        {
          "internalType": "address",
          "name": "creator",
          "type": "address"
        },
        {
          "internalType": "address",
          "name": "collectionAddress",
          "type": "address"
        },
        {
          "internalType": "uint256",
          "name": "tokenId",
          "type": "uint256"
        },
        {
          "internalType": "uint256",
          "name": "endingTime",
          "type": "uint256"
        },
        {
          "internalType": "uint256",
          "name": "price",
          "type": "uint256"
        },
        {
          "internalType": "address",
          "name": "bidder",
          "type": "address"
        }
      ],
      "stateMutability": "view",
      "type": "function"
    },
    {
      "inputs": [
        {
          "internalType": "address",
          "name": "collectionAddress",
          "type": "address"
        },
        {
          "internalType": "uint256",
          "name": "tokenId",
          "type": "uint256"
        }
      ],
      "name": "bid",
      "outputs": [],
      "stateMutability": "payable",
      "type": "function"
    },
    {
      "inputs": [
        {
          "internalType": "address",
          "name": "collectionAddress",
          "type": "address"
        },
        {
          "internalType": "uint256",
          "name": "tokenId",
          "type": "uint256"
        }
      ],
      "name": "claimAuction",
      "outputs": [],
      "stateMutability": "nonpayable",
      "type": "function"
    },
    {
      "inputs": [
        {
          "internalType": "address",
          "name": "collectionAddress",
          "type": "address"
        },
        {
          "internalType": "uint256",
          "name": "tokenId",
          "type": "uint256"
        },
        {
          "internalType": "uint256",
          "name": "startingPrice",
          "type": "uint256"
        }
      ],
      "name": "createNewAuction",
      "outputs": [
        {
          "internalType": "bytes32",
          "name": "",
          "type": "bytes32"
        }
      ],
      "stateMutability": "payable",
      "type": "function"
    },
    {
      "inputs": [],
      "name": "deposit",
      "outputs": [],
      "stateMutability": "payable",
      "type": "function"
    },
    {
      "inputs": [
        {
          "internalType": "address",
          "name": "",
          "type": "address"
        }
      ],
      "name": "deposits",
      "outputs": [
        {
          "internalType": "uint256",
          "name": "",
          "type": "uint256"
        }
      ],
      "stateMutability": "view",
      "type": "function"
    },
    {
      "inputs": [],
      "name": "getAllAuctions",
      "outputs": [
        {
          "components": [
            {
              "internalType": "address",
              "name": "creator",
              "type": "address"
            },
            {
              "internalType": "address",
              "name": "collectionAddress",
              "type": "address"
            },
            {
              "internalType": "uint256",
              "name": "tokenId",
              "type": "uint256"
            },
            {
              "internalType": "uint256",
              "name": "endingTime",
              "type": "uint256"
            },
            {
              "internalType": "uint256",
              "name": "price",
              "type": "uint256"
            },
            {
              "internalType": "address",
              "name": "bidder",
              "type": "address"
            }
          ],
          "internalType": "struct MiranCore.Auction[]",
          "name": "",
          "type": "tuple[]"
        }
      ],
      "stateMutability": "view",
      "type": "function"
    },
    {
      "inputs": [
        {
          "internalType": "address",
          "name": "collectionAddress",
          "type": "address"
        },
        {
          "internalType": "uint256",
          "name": "tokenId",
          "type": "uint256"
        }
      ],
      "name": "getAuctionId",
      "outputs": [
        {
          "internalType": "bytes32",
          "name": "",
          "type": "bytes32"
        }
      ],
      "stateMutability": "pure",
      "type": "function"
    },
    {
      "inputs": [],
      "name": "getAuctionsLength",
      "outputs": [
        {
          "internalType": "uint256",
          "name": "",
          "type": "uint256"
        }
      ],
      "stateMutability": "view",
      "type": "function"
    },
    {
      "inputs": [],
      "name": "getUserTokenLength",
      "outputs": [
        {
          "internalType": "uint256",
          "name": "",
          "type": "uint256"
        }
      ],
      "stateMutability": "view",
      "type": "function"
    },
    {
      "inputs": [],
      "name": "getUserTokens",
      "outputs": [
        {
          "components": [
            {
              "internalType": "address",
              "name": "collectionAddress",
              "type": "address"
            },
            {
              "internalType": "uint256",
              "name": "tokenId",
              "type": "uint256"
            }
          ],
          "internalType": "struct MiranCore.TokenDetails[]",
          "name": "",
          "type": "tuple[]"
        }
      ],
      "stateMutability": "view",
      "type": "function"
    },
    {
      "inputs": [
        {
          "internalType": "address",
          "name": "",
          "type": "address"
        },
        {
          "internalType": "address",
          "name": "",
          "type": "address"
        },
        {
          "internalType": "uint256",
          "name": "",
          "type": "uint256"
        }
      ],
      "name": "isDepositedByUser",
      "outputs": [
        {
          "internalType": "bool",
          "name": "",
          "type": "bool"
        }
      ],
      "stateMutability": "view",
      "type": "function"
    },
    {
      "inputs": [
        {
          "internalType": "address",
          "name": "",
          "type": "address"
        },
        {
          "internalType": "uint256",
          "name": "",
          "type": "uint256"
        }
      ],
      "name": "isTokenLocked",
      "outputs": [
        {
          "internalType": "bool",
          "name": "",
          "type": "bool"
        }
      ],
      "stateMutability": "view",
      "type": "function"
    },
    {
      "inputs": [
        {
          "internalType": "address",
          "name": "",
          "type": "address"
        }
      ],
      "name": "lockedDeposits",
      "outputs": [
        {
          "internalType": "uint256",
          "name": "",
          "type": "uint256"
        }
      ],
      "stateMutability": "view",
      "type": "function"
    },
    {
      "inputs": [
        {
          "internalType": "address",
          "name": "operator",
          "type": "address"
        },
        {
          "internalType": "address",
          "name": "from",
          "type": "address"
        },
        {
          "internalType": "uint256",
          "name": "tokenId",
          "type": "uint256"
        },
        {
          "internalType": "bytes",
          "name": "",
          "type": "bytes"
        }
      ],
      "name": "onERC721Received",
      "outputs": [
        {
          "internalType": "bytes4",
          "name": "",
          "type": "bytes4"
        }
      ],
      "stateMutability": "nonpayable",
      "type": "function"
    },
    {
      "inputs": [
        {
          "internalType": "address",
          "name": "",
          "type": "address"
        }
      ],
      "name": "userAuctions",
      "outputs": [
        {
          "internalType": "bytes32",
          "name": "",
          "type": "bytes32"
        }
      ],
      "stateMutability": "view",
      "type": "function"
    },
    {
      "inputs": [
        {
          "internalType": "address",
          "name": "",
          "type": "address"
        },
        {
          "internalType": "uint256",
          "name": "",
          "type": "uint256"
        }
      ],
      "name": "userTokens",
      "outputs": [
        {
          "internalType": "address",
          "name": "collectionAddress",
          "type": "address"
        },
        {
          "internalType": "uint256",
          "name": "tokenId",
          "type": "uint256"
        }
      ],
      "stateMutability": "view",
      "type": "function"
    },
    {
      "inputs": [],
      "name": "withdraw",
      "outputs": [],
      "stateMutability": "nonpayable",
      "type": "function"
    },
    {
      "inputs": [
        {
          "internalType": "address",
          "name": "collectionAddress",
          "type": "address"
        },
        {
          "internalType": "uint256",
          "name": "tokenId",
          "type": "uint256"
        }
      ],
      "name": "withdrawToken",
      "outputs": [],
      "stateMutability": "nonpayable",
      "type": "function"
    }
  ],
  "bytecode": "0x608060405262093a8060075561465060085561271060095534801561002357600080fd5b50612a6d806100336000396000f3fe6080604052600436106101405760003560e01c806373177dca116100b6578063cbd2bdfd1161006f578063cbd2bdfd14610498578063d0e30db0146104c3578063dbe35007146104cd578063f1b3cc82146104f8578063f9f411d814610523578063fc7e286d1461056157610140565b806373177dca146103745780637ae1ccf91461039f5780638a664ebc146103dc5780638c187fdf146104075780639e281a9814610444578063a89660431461046d57610140565b80633ccfd60b116101085780633ccfd60b1461026e5780633ff9d3261461028557806354d70aef146102c2578063561944d6146102ed578063571a26a01461031657806359d667a51461035857610140565b806308c1ba0714610145578063150b7a02146101825780632353f37b146101bf5780633470beed1461020157806336fef8681461023e575b600080fd5b34801561015157600080fd5b5061016c60048036038101906101679190611d90565b61059e565b604051610179919061261e565b60405180910390f35b34801561018e57600080fd5b506101a960048036038101906101a49190611e31565b6105b6565b6040516101b69190612639565b60405180910390f35b3480156101cb57600080fd5b506101e660048036038101906101e19190611f3c565b610671565b6040516101f896959493929190612535565b60405180910390f35b34801561020d57600080fd5b5061022860048036038101906102239190611de2565b61070d565b6040516102359190612603565b60405180910390f35b61025860048036038101906102539190611eed565b610749565b604051610265919061261e565b60405180910390f35b34801561027a57600080fd5b50610283610aa4565b005b34801561029157600080fd5b506102ac60048036038101906102a79190611eb1565b610c9e565b6040516102b9919061261e565b60405180910390f35b3480156102ce57600080fd5b506102d7610d19565b6040516102e491906127d4565b60405180910390f35b3480156102f957600080fd5b50610314600480360381019061030f9190611eb1565b610d1f565b005b34801561032257600080fd5b5061033d60048036038101906103389190611f8e565b61108a565b60405161034f96959493929190612535565b60405180910390f35b610372600480360381019061036d9190611eb1565b611136565b005b34801561038057600080fd5b50610389611510565b60405161039691906127d4565b60405180910390f35b3480156103ab57600080fd5b506103c660048036038101906103c19190611eb1565b611516565b6040516103d39190612603565b60405180910390f35b3480156103e857600080fd5b506103f1611545565b6040516103fe91906125e1565b60405180910390f35b34801561041357600080fd5b5061042e60048036038101906104299190611d90565b611641565b60405161043b91906127d4565b60405180910390f35b34801561045057600080fd5b5061046b60048036038101906104669190611eb1565b611659565b005b34801561047957600080fd5b506104826119ed565b60405161048f91906127d4565b60405180910390f35b3480156104a457600080fd5b506104ad6119f3565b6040516104ba91906125bf565b60405180910390f35b6104cb611b72565b005b3480156104d957600080fd5b506104e2611c0d565b6040516104ef91906127d4565b60405180910390f35b34801561050457600080fd5b5061050d611c1a565b60405161051a91906127d4565b60405180910390f35b34801561052f57600080fd5b5061054a60048036038101906105459190611eb1565b611c64565b604051610558929190612596565b60405180910390f35b34801561056d57600080fd5b5061058860048036038101906105839190611d90565b611cc5565b60405161059591906127d4565b60405180910390f35b60006020528060005260406000206000915090505481565b60006001600560008873ffffffffffffffffffffffffffffffffffffffff1673ffffffffffffffffffffffffffffffffffffffff16815260200190815260200160002060008773ffffffffffffffffffffffffffffffffffffffff1673ffffffffffffffffffffffffffffffffffffffff168152602001908152602001600020600086815260200190815260200160002060006101000a81548160ff02191690831515021790555063150b7a0260e01b905095945050505050565b60026020528060005260406000206000915090508060000160009054906101000a900473ffffffffffffffffffffffffffffffffffffffff16908060010160009054906101000a900473ffffffffffffffffffffffffffffffffffffffff16908060020154908060030154908060040154908060050160009054906101000a900473ffffffffffffffffffffffffffffffffffffffff16905086565b6005602052826000526040600020602052816000526040600020602052806000526040600020600092509250509054906101000a900460ff1681565b6000600954821161078f576040517f08c379a000000000000000000000000000000000000000000000000000000000815260040161078690612694565b60405180910390fd5b600061079b8585610c9e565b905060001515600660008773ffffffffffffffffffffffffffffffffffffffff1673ffffffffffffffffffffffffffffffffffffffff168152602001908152602001600020600086815260200190815260200160002060009054906101000a900460ff16151514610841576040517f08c379a000000000000000000000000000000000000000000000000000000000815260040161083890612794565b60405180910390fd5b60006040518060c001604052803373ffffffffffffffffffffffffffffffffffffffff1681526020018773ffffffffffffffffffffffffffffffffffffffff1681526020018681526020016007544261089a9190612888565b8152602001858152602001600073ffffffffffffffffffffffffffffffffffffffff1681525090506001600660008873ffffffffffffffffffffffffffffffffffffffff1673ffffffffffffffffffffffffffffffffffffffff168152602001908152602001600020600087815260200190815260200160002060006101000a81548160ff0219169083151502179055506109358686610c9e565b6000803373ffffffffffffffffffffffffffffffffffffffff1673ffffffffffffffffffffffffffffffffffffffff16815260200190815260200160002081905550600a81908060018154018082558091505060019003906000526020600020906006020160009091909190915060008201518160000160006101000a81548173ffffffffffffffffffffffffffffffffffffffff021916908373ffffffffffffffffffffffffffffffffffffffff16021790555060208201518160010160006101000a81548173ffffffffffffffffffffffffffffffffffffffff021916908373ffffffffffffffffffffffffffffffffffffffff16021790555060408201518160020155606082015181600301556080820151816004015560a08201518160050160006101000a81548173ffffffffffffffffffffffffffffffffffffffff021916908373ffffffffffffffffffffffffffffffffffffffff160217905550505081925050509392505050565b6000600460003373ffffffffffffffffffffffffffffffffffffffff1673ffffffffffffffffffffffffffffffffffffffff16815260200190815260200160002054600360003373ffffffffffffffffffffffffffffffffffffffff1673ffffffffffffffffffffffffffffffffffffffff16815260200190815260200160002054610b3091906128de565b11610b70576040517f08c379a0000000000000000000000000000000000000000000000000000000008152600401610b6790612774565b60405180910390fd5b6000600460003373ffffffffffffffffffffffffffffffffffffffff1673ffffffffffffffffffffffffffffffffffffffff16815260200190815260200160002054600360003373ffffffffffffffffffffffffffffffffffffffff1673ffffffffffffffffffffffffffffffffffffffff16815260200190815260200160002054610bfc91906128de565b905080600360003373ffffffffffffffffffffffffffffffffffffffff1673ffffffffffffffffffffffffffffffffffffffff1681526020019081526020016000206000828254610c4d91906128de565b925050819055503373ffffffffffffffffffffffffffffffffffffffff166108fc829081150290604051600060405180830381858888f19350505050158015610c9a573d6000803e3d6000fd5b5050565b600060028383604051602001610cb5929190612596565b604051602081830303815290604052604051610cd191906124e7565b602060405180830381855afa158015610cee573d6000803e3d6000fd5b5050506040513d601f19601f82011682018060405250810190610d119190611f65565b905092915050565b60075481565b6000610d2b8383610c9e565b905042600260008381526020019081526020016000206003015410610d85576040517f08c379a0000000000000000000000000000000000000000000000000000000008152600401610d7c906127b4565b60405180910390fd5b3373ffffffffffffffffffffffffffffffffffffffff166002600083815260200190815260200160002060050160009054906101000a900473ffffffffffffffffffffffffffffffffffffffff1673ffffffffffffffffffffffffffffffffffffffff1614610e29576040517f08c379a0000000000000000000000000000000000000000000000000000000008152600401610e20906126f4565b60405180910390fd5b60006002600083815260200190815260200160002060000160009054906101000a900473ffffffffffffffffffffffffffffffffffffffff1690506000600560008373ffffffffffffffffffffffffffffffffffffffff1673ffffffffffffffffffffffffffffffffffffffff16815260200190815260200160002060008673ffffffffffffffffffffffffffffffffffffffff1673ffffffffffffffffffffffffffffffffffffffff168152602001908152602001600020600085815260200190815260200160002060006101000a81548160ff0219169083151502179055506000600660008673ffffffffffffffffffffffffffffffffffffffff1673ffffffffffffffffffffffffffffffffffffffff168152602001908152602001600020600085815260200190815260200160002060006101000a81548160ff0219169083151502179055508373ffffffffffffffffffffffffffffffffffffffff166342842e0e3033866040518463ffffffff1660e01b8152600401610fb0939291906124fe565b600060405180830381600087803b158015610fca57600080fd5b505af1158015610fde573d6000803e3d6000fd5b505050506002600083815260200190815260200160002060040154600360006002600086815260200190815260200160002060000160009054906101000a900473ffffffffffffffffffffffffffffffffffffffff1673ffffffffffffffffffffffffffffffffffffffff1673ffffffffffffffffffffffffffffffffffffffff168152602001908152602001600020600082825461107d9190612888565b9250508190555050505050565b600a818154811061109a57600080fd5b90600052602060002090600602016000915090508060000160009054906101000a900473ffffffffffffffffffffffffffffffffffffffff16908060010160009054906101000a900473ffffffffffffffffffffffffffffffffffffffff16908060020154908060030154908060040154908060050160009054906101000a900473ffffffffffffffffffffffffffffffffffffffff16905086565b60006111428383610c9e565b90503373ffffffffffffffffffffffffffffffffffffffff166002600083815260200190815260200160002060000160009054906101000a900473ffffffffffffffffffffffffffffffffffffffff1673ffffffffffffffffffffffffffffffffffffffff1614156111e9576040517f08c379a00000000000000000000000000000000000000000000000000000000081526004016111e090612674565b60405180910390fd5b60026000828152602001908152602001600020600401543411611241576040517f08c379a000000000000000000000000000000000000000000000000000000000815260040161123890612714565b60405180910390fd5b3373ffffffffffffffffffffffffffffffffffffffff166002600083815260200190815260200160002060050160009054906101000a900473ffffffffffffffffffffffffffffffffffffffff1673ffffffffffffffffffffffffffffffffffffffff1614156112e6576040517f08c379a00000000000000000000000000000000000000000000000000000000081526004016112dd90612734565b60405180910390fd5b6001600660008573ffffffffffffffffffffffffffffffffffffffff1673ffffffffffffffffffffffffffffffffffffffff168152602001908152602001600020600084815260200190815260200160002060006101000a81548160ff02191690831515021790555034600460003373ffffffffffffffffffffffffffffffffffffffff1673ffffffffffffffffffffffffffffffffffffffff168152602001908152602001600020600082825461139e9190612888565b925050819055506002600082815260200190815260200160002060040154600460006002600085815260200190815260200160002060050160009054906101000a900473ffffffffffffffffffffffffffffffffffffffff1673ffffffffffffffffffffffffffffffffffffffff1673ffffffffffffffffffffffffffffffffffffffff168152602001908152602001600020600082825461144091906128de565b92505081905550336002600083815260200190815260200160002060050160006101000a81548173ffffffffffffffffffffffffffffffffffffffff021916908373ffffffffffffffffffffffffffffffffffffffff1602179055503460026000838152602001908152602001600020600401819055506002600082815260200190815260200160002060030154600854426114dc9190612888565b111561150b57600854426114f09190612888565b60026000838152602001908152602001600020600301819055505b505050565b60095481565b60066020528160005260406000206020528060005260406000206000915091509054906101000a900460ff1681565b6060600160003373ffffffffffffffffffffffffffffffffffffffff1673ffffffffffffffffffffffffffffffffffffffff168152602001908152602001600020805480602002602001604051908101604052809291908181526020016000905b8282101561163857838290600052602060002090600202016040518060400160405290816000820160009054906101000a900473ffffffffffffffffffffffffffffffffffffffff1673ffffffffffffffffffffffffffffffffffffffff1673ffffffffffffffffffffffffffffffffffffffff168152602001600182015481525050815260200190600101906115a6565b50505050905090565b60046020528060005260406000206000915090505481565b3073ffffffffffffffffffffffffffffffffffffffff168273ffffffffffffffffffffffffffffffffffffffff16636352211e836040518263ffffffff1660e01b81526004016116a991906127d4565b60206040518083038186803b1580156116c157600080fd5b505afa1580156116d5573d6000803e3d6000fd5b505050506040513d601f19601f820116820180604052508101906116f99190611db9565b73ffffffffffffffffffffffffffffffffffffffff161461174f576040517f08c379a000000000000000000000000000000000000000000000000000000000815260040161174690612754565b60405180910390fd5b60011515600560003373ffffffffffffffffffffffffffffffffffffffff1673ffffffffffffffffffffffffffffffffffffffff16815260200190815260200160002060008473ffffffffffffffffffffffffffffffffffffffff1673ffffffffffffffffffffffffffffffffffffffff168152602001908152602001600020600083815260200190815260200160002060009054906101000a900460ff16151514611830576040517f08c379a000000000000000000000000000000000000000000000000000000000815260040161182790612654565b60405180910390fd5b60001515600660008473ffffffffffffffffffffffffffffffffffffffff1673ffffffffffffffffffffffffffffffffffffffff168152602001908152602001600020600083815260200190815260200160002060009054906101000a900460ff161515146118d4576040517f08c379a00000000000000000000000000000000000000000000000000000000081526004016118cb906126d4565b60405180910390fd5b6000600560003373ffffffffffffffffffffffffffffffffffffffff1673ffffffffffffffffffffffffffffffffffffffff16815260200190815260200160002060008473ffffffffffffffffffffffffffffffffffffffff1673ffffffffffffffffffffffffffffffffffffffff168152602001908152602001600020600083815260200190815260200160002060006101000a81548160ff0219169083151502179055508173ffffffffffffffffffffffffffffffffffffffff166342842e0e3033846040518463ffffffff1660e01b81526004016119b7939291906124fe565b600060405180830381600087803b1580156119d157600080fd5b505af11580156119e5573d6000803e3d6000fd5b505050505050565b60085481565b6060600a805480602002602001604051908101604052809291908181526020016000905b82821015611b6957838290600052602060002090600602016040518060c00160405290816000820160009054906101000a900473ffffffffffffffffffffffffffffffffffffffff1673ffffffffffffffffffffffffffffffffffffffff1673ffffffffffffffffffffffffffffffffffffffff1681526020016001820160009054906101000a900473ffffffffffffffffffffffffffffffffffffffff1673ffffffffffffffffffffffffffffffffffffffff1673ffffffffffffffffffffffffffffffffffffffff1681526020016002820154815260200160038201548152602001600482015481526020016005820160009054906101000a900473ffffffffffffffffffffffffffffffffffffffff1673ffffffffffffffffffffffffffffffffffffffff1673ffffffffffffffffffffffffffffffffffffffff168152505081526020019060010190611a17565b50505050905090565b60003411611bb5576040517f08c379a0000000000000000000000000000000000000000000000000000000008152600401611bac906126b4565b60405180910390fd5b34600360003373ffffffffffffffffffffffffffffffffffffffff1673ffffffffffffffffffffffffffffffffffffffff1681526020019081526020016000206000828254611c049190612888565b92505081905550565b6000600a80549050905090565b6000600160003373ffffffffffffffffffffffffffffffffffffffff1673ffffffffffffffffffffffffffffffffffffffff16815260200190815260200160002080549050905090565b60016020528160005260406000208181548110611c8057600080fd5b9060005260206000209060020201600091509150508060000160009054906101000a900473ffffffffffffffffffffffffffffffffffffffff16908060010154905082565b60036020528060005260406000206000915090505481565b600081359050611cec816129f2565b92915050565b600081519050611d01816129f2565b92915050565b600081359050611d1681612a09565b92915050565b600081519050611d2b81612a09565b92915050565b60008083601f840112611d4357600080fd5b8235905067ffffffffffffffff811115611d5c57600080fd5b602083019150836001820283011115611d7457600080fd5b9250929050565b600081359050611d8a81612a20565b92915050565b600060208284031215611da257600080fd5b6000611db084828501611cdd565b91505092915050565b600060208284031215611dcb57600080fd5b6000611dd984828501611cf2565b91505092915050565b600080600060608486031215611df757600080fd5b6000611e0586828701611cdd565b9350506020611e1686828701611cdd565b9250506040611e2786828701611d7b565b9150509250925092565b600080600080600060808688031215611e4957600080fd5b6000611e5788828901611cdd565b9550506020611e6888828901611cdd565b9450506040611e7988828901611d7b565b935050606086013567ffffffffffffffff811115611e9657600080fd5b611ea288828901611d31565b92509250509295509295909350565b60008060408385031215611ec457600080fd5b6000611ed285828601611cdd565b9250506020611ee385828601611d7b565b9150509250929050565b600080600060608486031215611f0257600080fd5b6000611f1086828701611cdd565b9350506020611f2186828701611d7b565b9250506040611f3286828701611d7b565b9150509250925092565b600060208284031215611f4e57600080fd5b6000611f5c84828501611d07565b91505092915050565b600060208284031215611f7757600080fd5b6000611f8584828501611d1c565b91505092915050565b600060208284031215611fa057600080fd5b6000611fae84828501611d7b565b91505092915050565b6000611fc3838361241f565b60c08301905092915050565b6000611fdb838361249a565b60408301905092915050565b611ff081612912565b82525050565b611fff81612912565b82525050565b60006120108261280f565b61201a818561284a565b9350612025836127ef565b8060005b8381101561205657815161203d8882611fb7565b975061204883612830565b925050600181019050612029565b5085935050505092915050565b600061206e8261281a565b612078818561285b565b9350612083836127ff565b8060005b838110156120b457815161209b8882611fcf565b97506120a68361283d565b925050600181019050612087565b5085935050505092915050565b6120ca81612924565b82525050565b6120d981612930565b82525050565b6120e88161293a565b82525050565b60006120f982612825565b612103818561286c565b9350612113818560208601612990565b80840191505092915050565b600061212c601d83612877565b91507f75736572206e6f74206465706f7369746564207468697320746f6b656e0000006000830152602082019050919050565b600061216c601883612877565b91507f63616e6e6f742062696420796f75722061756374696f6e7300000000000000006000830152602082019050919050565b60006121ac600d83612877565b91507f746f6f206c6f77207072696365000000000000000000000000000000000000006000830152602082019050919050565b60006121ec600a83612877565b91507f6e6f206465706f736974000000000000000000000000000000000000000000006000830152602082019050919050565b600061222c600c83612877565b91507f746f6b656e206c6f636b656400000000000000000000000000000000000000006000830152602082019050919050565b600061226c600b83612877565b91507f6f6e6c792077696e6e65720000000000000000000000000000000000000000006000830152602082019050919050565b60006122ac600b83612877565b91507f62696420746f6f206c6f770000000000000000000000000000000000000000006000830152602082019050919050565b60006122ec601783612877565b91507f63616e6e6f74206f75742062696420796f757273656c660000000000000000006000830152602082019050919050565b600061232c601283612877565b91507f636f6e7472616374206e6f74206f776e657200000000000000000000000000006000830152602082019050919050565b600061236c601483612877565b91507f6e6f20617661696c61626c652062616c616e63650000000000000000000000006000830152602082019050919050565b60006123ac601183612877565b91507f616c72656164792061756374696f6e65640000000000000000000000000000006000830152602082019050919050565b60006123ec600983612877565b91507f6e6f7420656e64656400000000000000000000000000000000000000000000006000830152602082019050919050565b60c0820160008201516124356000850182611fe7565b5060208201516124486020850182611fe7565b50604082015161245b60408501826124c9565b50606082015161246e60608501826124c9565b50608082015161248160808501826124c9565b5060a082015161249460a0850182611fe7565b50505050565b6040820160008201516124b06000850182611fe7565b5060208201516124c360208501826124c9565b50505050565b6124d281612986565b82525050565b6124e181612986565b82525050565b60006124f382846120ee565b915081905092915050565b60006060820190506125136000830186611ff6565b6125206020830185611ff6565b61252d60408301846124d8565b949350505050565b600060c08201905061254a6000830189611ff6565b6125576020830188611ff6565b61256460408301876124d8565b61257160608301866124d8565b61257e60808301856124d8565b61258b60a0830184611ff6565b979650505050505050565b60006040820190506125ab6000830185611ff6565b6125b860208301846124d8565b9392505050565b600060208201905081810360008301526125d98184612005565b905092915050565b600060208201905081810360008301526125fb8184612063565b905092915050565b600060208201905061261860008301846120c1565b92915050565b600060208201905061263360008301846120d0565b92915050565b600060208201905061264e60008301846120df565b92915050565b6000602082019050818103600083015261266d8161211f565b9050919050565b6000602082019050818103600083015261268d8161215f565b9050919050565b600060208201905081810360008301526126ad8161219f565b9050919050565b600060208201905081810360008301526126cd816121df565b9050919050565b600060208201905081810360008301526126ed8161221f565b9050919050565b6000602082019050818103600083015261270d8161225f565b9050919050565b6000602082019050818103600083015261272d8161229f565b9050919050565b6000602082019050818103600083015261274d816122df565b9050919050565b6000602082019050818103600083015261276d8161231f565b9050919050565b6000602082019050818103600083015261278d8161235f565b9050919050565b600060208201905081810360008301526127ad8161239f565b9050919050565b600060208201905081810360008301526127cd816123df565b9050919050565b60006020820190506127e960008301846124d8565b92915050565b6000819050602082019050919050565b6000819050602082019050919050565b600081519050919050565b600081519050919050565b600081519050919050565b6000602082019050919050565b6000602082019050919050565b600082825260208201905092915050565b600082825260208201905092915050565b600081905092915050565b600082825260208201905092915050565b600061289382612986565b915061289e83612986565b9250827fffffffffffffffffffffffffffffffffffffffffffffffffffffffffffffffff038211156128d3576128d26129c3565b5b828201905092915050565b60006128e982612986565b91506128f483612986565b925082821015612907576129066129c3565b5b828203905092915050565b600061291d82612966565b9050919050565b60008115159050919050565b6000819050919050565b60007fffffffff0000000000000000000000000000000000000000000000000000000082169050919050565b600073ffffffffffffffffffffffffffffffffffffffff82169050919050565b6000819050919050565b60005b838110156129ae578082015181840152602081019050612993565b838111156129bd576000848401525b50505050565b7f4e487b7100000000000000000000000000000000000000000000000000000000600052601160045260246000fd5b6129fb81612912565b8114612a0657600080fd5b50565b612a1281612930565b8114612a1d57600080fd5b50565b612a2981612986565b8114612a3457600080fd5b5056fea2646970667358221220fa8eca42addeb95d498a0162226a191c2cbbaa8066382a5272435334e96f299d64736f6c63430008000033",
  "linkReferences": {},
  "deployedLinkReferences": {}
}