{
  "_format": "hh-sol-artifact-1",
  "contractName": "MiranCore",
  "sourceName": "contracts/MiranCore.sol",
  "abi": [
    {
      "inputs": [],
      "stateMutability": "nonpayable",
      "type": "constructor"
    },
    {
      "anonymous": false,
      "inputs": [
        {
          "indexed": false,
          "internalType": "address",
          "name": "collectionAddress",
          "type": "address"
        },
        {
          "indexed": false,
          "internalType": "uint256",
          "name": "tokenId",
          "type": "uint256"
        },
        {
          "indexed": false,
          "internalType": "address",
          "name": "bidder",
          "type": "address"
        },
        {
          "indexed": false,
          "internalType": "uint256",
          "name": "price",
          "type": "uint256"
        },
        {
          "indexed": false,
          "internalType": "uint256",
          "name": "endingTime",
          "type": "uint256"
        }
      ],
      "name": "Bid",
      "type": "event"
    },
    {
      "anonymous": false,
      "inputs": [
        {
          "indexed": false,
          "internalType": "address",
          "name": "collectionAddress",
          "type": "address"
        },
        {
          "indexed": false,
          "internalType": "uint256",
          "name": "tokenId",
          "type": "uint256"
        },
        {
          "indexed": false,
          "internalType": "address",
          "name": "bidder",
          "type": "address"
        },
        {
          "indexed": false,
          "internalType": "uint256",
          "name": "price",
          "type": "uint256"
        }
      ],
      "name": "Claimed",
      "type": "event"
    },
    {
      "inputs": [],
      "name": "BASE_AUCTION_DURATION",
      "outputs": [
        {
          "internalType": "uint256",
          "name": "",
          "type": "uint256"
        }
      ],
      "stateMutability": "view",
      "type": "function"
    },
    {
      "inputs": [],
      "name": "BID_AUCTION_DURATION",
      "outputs": [
        {
          "internalType": "uint256",
          "name": "",
          "type": "uint256"
        }
      ],
      "stateMutability": "view",
      "type": "function"
    },
    {
      "inputs": [],
      "name": "MIN_REQUIRED_PRICE",
      "outputs": [
        {
          "internalType": "uint256",
          "name": "",
          "type": "uint256"
        }
      ],
      "stateMutability": "view",
      "type": "function"
    },
    {
      "inputs": [
        {
          "internalType": "bytes32",
          "name": "",
          "type": "bytes32"
        }
      ],
      "name": "auctionById",
      "outputs": [
        {
          "internalType": "uint256",
          "name": "index",
          "type": "uint256"
        },
        {
          "internalType": "uint256",
          "name": "creationTime",
          "type": "uint256"
        },
        {
          "internalType": "uint256",
          "name": "endingTime",
          "type": "uint256"
        },
        {
          "internalType": "address",
          "name": "creator",
          "type": "address"
        },
        {
          "internalType": "address",
          "name": "collectionAddress",
          "type": "address"
        },
        {
          "internalType": "uint256",
          "name": "tokenId",
          "type": "uint256"
        },
        {
          "internalType": "uint256",
          "name": "price",
          "type": "uint256"
        },
        {
          "internalType": "address",
          "name": "bidder",
          "type": "address"
        }
      ],
      "stateMutability": "view",
      "type": "function"
    },
    {
      "inputs": [
        {
          "internalType": "uint256",
          "name": "",
          "type": "uint256"
        }
      ],
      "name": "auctionsIds",
      "outputs": [
        {
          "internalType": "bytes32",
          "name": "",
          "type": "bytes32"
        }
      ],
      "stateMutability": "view",
      "type": "function"
    },
    {
      "inputs": [
        {
          "internalType": "address",
          "name": "",
          "type": "address"
        }
      ],
      "name": "balance",
      "outputs": [
        {
          "internalType": "uint256",
          "name": "",
          "type": "uint256"
        }
      ],
      "stateMutability": "view",
      "type": "function"
    },
    {
      "inputs": [
        {
          "internalType": "address",
          "name": "collectionAddress",
          "type": "address"
        },
        {
          "internalType": "uint256",
          "name": "tokenId",
          "type": "uint256"
        },
        {
          "internalType": "uint256",
          "name": "price",
          "type": "uint256"
        }
      ],
      "name": "bid",
      "outputs": [],
      "stateMutability": "payable",
      "type": "function"
    },
    {
      "inputs": [
        {
          "internalType": "address",
          "name": "collectionAddress",
          "type": "address"
        },
        {
          "internalType": "uint256",
          "name": "tokenId",
          "type": "uint256"
        }
      ],
      "name": "claimAuction",
      "outputs": [],
      "stateMutability": "nonpayable",
      "type": "function"
    },
    {
      "inputs": [
        {
          "internalType": "address",
          "name": "collectionAddress",
          "type": "address"
        },
        {
          "internalType": "uint256",
          "name": "tokenId",
          "type": "uint256"
        },
        {
          "internalType": "uint256",
          "name": "startingPrice",
          "type": "uint256"
        }
      ],
      "name": "createNewAuction",
      "outputs": [
        {
          "internalType": "bytes32",
          "name": "",
          "type": "bytes32"
        }
      ],
      "stateMutability": "payable",
      "type": "function"
    },
    {
      "inputs": [],
      "name": "deposit",
      "outputs": [],
      "stateMutability": "payable",
      "type": "function"
    },
    {
      "inputs": [
        {
          "internalType": "address",
          "name": "collectionAddress",
          "type": "address"
        },
        {
          "internalType": "uint256",
          "name": "tokenId",
          "type": "uint256"
        }
      ],
      "name": "getAuctionId",
      "outputs": [
        {
          "internalType": "bytes32",
          "name": "",
          "type": "bytes32"
        }
      ],
      "stateMutability": "pure",
      "type": "function"
    },
    {
      "inputs": [],
      "name": "getAuctions",
      "outputs": [
        {
          "components": [
            {
              "internalType": "uint256",
              "name": "index",
              "type": "uint256"
            },
            {
              "internalType": "uint256",
              "name": "creationTime",
              "type": "uint256"
            },
            {
              "internalType": "uint256",
              "name": "endingTime",
              "type": "uint256"
            },
            {
              "internalType": "address",
              "name": "creator",
              "type": "address"
            },
            {
              "internalType": "address",
              "name": "collectionAddress",
              "type": "address"
            },
            {
              "internalType": "uint256",
              "name": "tokenId",
              "type": "uint256"
            },
            {
              "internalType": "uint256",
              "name": "price",
              "type": "uint256"
            },
            {
              "internalType": "address",
              "name": "bidder",
              "type": "address"
            }
          ],
          "internalType": "struct MiranCore.Auction[]",
          "name": "",
          "type": "tuple[]"
        }
      ],
      "stateMutability": "view",
      "type": "function"
    },
    {
      "inputs": [],
      "name": "getAuctionsLength",
      "outputs": [
        {
          "internalType": "uint256",
          "name": "",
          "type": "uint256"
        }
      ],
      "stateMutability": "view",
      "type": "function"
    },
    {
      "inputs": [],
      "name": "getUserBalance",
      "outputs": [
        {
          "internalType": "uint256",
          "name": "",
          "type": "uint256"
        }
      ],
      "stateMutability": "view",
      "type": "function"
    },
    {
      "inputs": [],
      "name": "getUserTokenLength",
      "outputs": [
        {
          "internalType": "uint256",
          "name": "",
          "type": "uint256"
        }
      ],
      "stateMutability": "view",
      "type": "function"
    },
    {
      "inputs": [],
      "name": "getUserTokens",
      "outputs": [
        {
          "components": [
            {
              "internalType": "uint256",
              "name": "index",
              "type": "uint256"
            },
            {
              "internalType": "address",
              "name": "collectionAddress",
              "type": "address"
            },
            {
              "internalType": "uint256",
              "name": "tokenId",
              "type": "uint256"
            }
          ],
          "internalType": "struct MiranCore.TokenDetails[]",
          "name": "",
          "type": "tuple[]"
        }
      ],
      "stateMutability": "view",
      "type": "function"
    },
    {
      "inputs": [
        {
          "internalType": "address",
          "name": "",
          "type": "address"
        },
        {
          "internalType": "uint256",
          "name": "",
          "type": "uint256"
        }
      ],
      "name": "isTokenLocked",
      "outputs": [
        {
          "internalType": "bool",
          "name": "",
          "type": "bool"
        }
      ],
      "stateMutability": "view",
      "type": "function"
    },
    {
      "inputs": [
        {
          "internalType": "address",
          "name": "operator",
          "type": "address"
        },
        {
          "internalType": "address",
          "name": "from",
          "type": "address"
        },
        {
          "internalType": "uint256",
          "name": "tokenId",
          "type": "uint256"
        },
        {
          "internalType": "bytes",
          "name": "",
          "type": "bytes"
        }
      ],
      "name": "onERC721Received",
      "outputs": [
        {
          "internalType": "bytes4",
          "name": "",
          "type": "bytes4"
        }
      ],
      "stateMutability": "nonpayable",
      "type": "function"
    },
    {
      "inputs": [
        {
          "internalType": "address",
          "name": "",
          "type": "address"
        },
        {
          "internalType": "uint256",
          "name": "",
          "type": "uint256"
        }
      ],
      "name": "userTokens",
      "outputs": [
        {
          "internalType": "bytes32",
          "name": "",
          "type": "bytes32"
        }
      ],
      "stateMutability": "view",
      "type": "function"
    },
    {
      "inputs": [
        {
          "internalType": "uint256",
          "name": "amount",
          "type": "uint256"
        }
      ],
      "name": "withdraw",
      "outputs": [],
      "stateMutability": "nonpayable",
      "type": "function"
    },
    {
      "inputs": [
        {
          "internalType": "address",
          "name": "collectionAddress",
          "type": "address"
        },
        {
          "internalType": "uint256",
          "name": "tokenId",
          "type": "uint256"
        }
      ],
      "name": "withdrawToken",
      "outputs": [],
      "stateMutability": "nonpayable",
      "type": "function"
    }
  ],
  "bytecode": "0x608060405260b4600755603c600855600160095534801561001f57600080fd5b50611a748061002f6000396000f3fe60806040526004361061016a5760003560e01c80637ae1ccf9116100cb578063d0e30db01161007f578063e3d670d711610059578063e3d670d714610390578063f1b3cc82146103b0578063f9f411d8146103c55761016a565b8063d0e30db014610351578063d7c0691914610359578063dbe350071461037b5761016a565b80639e281a98116100b05780639e281a9814610307578063a896604314610327578063b7013dc11461033c5761016a565b80637ae1ccf9146102b85780638a664ebc146102e55761016a565b806336fef8681161012257806354d70aef1161010757806354d70aef1461026e578063561944d61461028357806373177dca146102a35761016a565b806336fef8681461023b5780633ff9d3261461024e5761016a565b80632353f37b116101535780632353f37b146101ba57806325b713b4146101ee5780632e1a7d4d1461021b5761016a565b80630f41ba4b1461016f578063150b7a0214610184575b600080fd5b61018261017d366004611533565b6103e5565b005b34801561019057600080fd5b506101a461019f366004611474565b6105d3565b6040516101b19190611746565b60405180910390f35b3480156101c657600080fd5b506101da6101d5366004611565565b6106e2565b6040516101b1989796959493929190611999565b3480156101fa57600080fd5b5061020e610209366004611565565b610734565b6040516101b1919061173d565b34801561022757600080fd5b50610182610236366004611565565b610755565b61020e610249366004611533565b6107d8565b34801561025a57600080fd5b5061020e61026936600461150a565b610af9565b34801561027a57600080fd5b5061020e610b71565b34801561028f57600080fd5b5061018261029e36600461150a565b610b77565b3480156102af57600080fd5b5061020e610d88565b3480156102c457600080fd5b506102d86102d336600461150a565b610d8e565b6040516101b19190611732565b3480156102f157600080fd5b506102fa610dae565b6040516101b191906116dd565b34801561031357600080fd5b5061018261032236600461150a565b610ef1565b34801561033357600080fd5b5061020e611192565b34801561034857600080fd5b5061020e611198565b6101826111ab565b34801561036557600080fd5b5061036e6111f1565b6040516101b1919061163f565b34801561038757600080fd5b5061020e611358565b34801561039c57600080fd5b5061020e6103ab36600461145a565b61135e565b3480156103bc57600080fd5b5061020e611370565b3480156103d157600080fd5b5061020e6103e036600461150a565b611383565b60006103f18484610af9565b33600090815260066020526040902054909150829061041090346119de565b10156104375760405162461bcd60e51b815260040161042e90611886565b60405180910390fd5b60008181526004602052604090206006015482116104675760405162461bcd60e51b815260040161042e9061184f565b60008181526004602090815260408083206006808201546007909201546001600160a01b0316855290925282208054919290916104a59084906119de565b90915550503482116104e5576104bb82346119f6565b33600090815260066020526040812080549091906104da9084906119de565b9091555061051c9050565b60006104f134846119f6565b336000908152600660205260408120805492935083929091906105159084906119f6565b9091555050505b6000818152600460205260409020600681018390556007810180546001600160a01b0319163317905560020154614650906105589042906119f6565b101561057c5761056942603c6119de565b6000828152600460205260409020600201555b600081815260046020526040908190206002015490517f6406a98dccde08d7941b0bdc278fe6de57d2364b9c99a10c4219918516f97034916105c591879187913391889161160b565b60405180910390a150505050565b336000818152600260209081526040808320878452909152812080546001600160a01b0319166001600160a01b0388161790559081906106139086610af9565b6001600160a01b0387166000818152602081815260408083208054600181810183558286529385200186905593909252915481516060810190925292935090819061065e90846119f6565b8152336020808301919091526040918201989098526000938452600180895293819020825181559782015193880180546001600160a01b0319166001600160a01b039095169490941790935590910151600290950194909455507f150b7a020000000000000000000000000000000000000000000000000000000095945050505050565b6004602081905260009182526040909120805460018201546002830154600384015494840154600585015460068601546007909601549496939592946001600160a01b03948516949283169391921688565b6005818154811061074457600080fd5b600091825260209091200154905081565b3360009081526006602052604090205481106107835760405162461bcd60e51b815260040161042e906118bd565b33600090815260066020526040812080548392906107a29084906119f6565b9091555050604051339082156108fc029083906000818181858888f193505050501580156107d4573d6000803e3d6000fd5b5050565b600060095482116107fb5760405162461bcd60e51b815260040161042e906117aa565b60006108078585610af9565b6001600160a01b038616600090815260036020908152604080832088845290915290205490915060ff161561084e5760405162461bcd60e51b815260040161042e906118f4565b6001600160a01b0385811660009081526002602090815260408083208884529091529020541633146108925760405162461bcd60e51b815260040161042e9061192b565b600554604080516101008101825282815242602082018190526007546000938301916108be91906119de565b81523360208083018290526001600160a01b038b8116604080860182905260608087018e905260808088018e9052600060a098890181905260058054600181810183557f036b6384b5eca791c62761152d0c79bb0604c104a5fb6f4eb0703f3154bb3db09091018f90558e83526004808a528684208d5181558d8b0151818401558d8801516002820155958d015160038088018054928c166001600160a01b0319938416179055958e01519187018054928b16928216929092179091559a8c01519185019190915560c08b0151600685015560e08b0151600790940180549490971693909916929092179094559182529183528181208c82528352818120805460ff1916861790558881528483528181205493815291829052902080549394509092916109eb90836119f6565b81548110610a0957634e487b7160e01b600052603260045260246000fd5b6000918252602080832090910154338352908290526040909120805484908110610a4357634e487b7160e01b600052603260045260246000fd5b600091825260208083209091019290925533815290819052604081208391600191610a6e83866119f6565b81548110610a8c57634e487b7160e01b600052603260045260246000fd5b60009182526020808320909101548352828101939093526040918201812093909355338352908290529020805480610ad457634e487b7160e01b600052603160045260246000fd5b6001900381819060005260206000200160009055905584955050505050509392505050565b600060028383604051602001610b109291906115f2565b60408051601f1981840301815290829052610b2a91611595565b602060405180830381855afa158015610b47573d6000803e3d6000fd5b5050506040513d601f19601f82011682018060405250810190610b6a919061157d565b9392505050565b60075481565b6000610b838383610af9565b6000818152600460205260409020600201549091504211610bb65760405162461bcd60e51b815260040161042e90611962565b6000818152600460209081526040808320600701546001600160a01b0387811680865260028552838620888752855283862080546001600160a01b03191692909316918217909255908452600383528184208685528352818420805460ff1916905580845283835290832080546001818101835582865293852001859055928190529154610c4491906119f6565b6000838152600160208181526040808420949094556004905291902054600580549192610c7190836119f6565b81548110610c8f57634e487b7160e01b600052603260045260246000fd5b906000526020600020015460058381548110610cbb57634e487b7160e01b600052603260045260246000fd5b6000918252602090912001556005805480610ce657634e487b7160e01b600052603160045260246000fd5b60019003818190600052602060002001600090559055816004600060058581548110610d2257634e487b7160e01b600052603260045260246000fd5b60009182526020808320909101548352828101939093526040918201812093909355868352600482528083206006808201546003909201546001600160a01b031685529092528220805491929091610d7b9084906119de565b9091555050505050505050565b60095481565b600360209081526000928352604080842090915290825290205460ff1681565b336000908152602081905260408120546060918167ffffffffffffffff811115610de857634e487b7160e01b600052604160045260246000fd5b604051908082528060200260200182016040528015610e2157816020015b610e0e6113b4565b815260200190600190039081610e065790505b50905060005b82811015610eea573360009081526020819052604081208054600192919084908110610e6357634e487b7160e01b600052603260045260246000fd5b60009182526020808320909101548352828101939093526040918201902081516060810183528154815260018201546001600160a01b03169381019390935260020154908201528251839083908110610ecc57634e487b7160e01b600052603260045260246000fd5b60200260200101819052508080610ee290611a0d565b915050610e27565b5091505090565b6001600160a01b038281166000908152600260209081526040808320858452909152902054163314610f355760405162461bcd60e51b815260040161042e90611773565b6001600160a01b038216600090815260036020908152604080832084845290915290205460ff1615610f795760405162461bcd60e51b815260040161042e90611818565b6001600160a01b0382166000908152600260209081526040808320848452825280832080546001600160a01b03191690553383529082905281205490610fbf8484610af9565b60008181526001602081815260408084205433855291849052909220929350909190610feb90856119f6565b8154811061100957634e487b7160e01b600052603260045260246000fd5b600091825260208083209091015433835290829052604090912080548390811061104357634e487b7160e01b600052603260045260246000fd5b60009182526020808320909101929092553381529081905260408120829160019161106e83886119f6565b8154811061108c57634e487b7160e01b600052603260045260246000fd5b600091825260208083209091015483528281019390935260409182018120939093553383529082905290208054806110d457634e487b7160e01b600052603160045260246000fd5b6000828152602080822083016000199081018390559092019092556001600160a01b0387168083526002825260408084208885529092529181902080546001600160a01b0319169055517f42842e0e0000000000000000000000000000000000000000000000000000000081526342842e0e90611159903090339089906004016115ce565b600060405180830381600087803b15801561117357600080fd5b505af1158015611187573d6000803e3d6000fd5b505050505050505050565b60085481565b3360009081526006602052604090205490565b600034116111cb5760405162461bcd60e51b815260040161042e906117e1565b33600090815260066020526040812080543492906111ea9084906119de565b9091555050565b60055460609060009067ffffffffffffffff81111561122057634e487b7160e01b600052604160045260246000fd5b60405190808252806020026020018201604052801561125957816020015b6112466113de565b81526020019060019003908161123e5790505b50905060005b60055481101561135257600460006005838154811061128e57634e487b7160e01b600052603260045260246000fd5b6000918252602080832090910154835282810193909352604091820190208151610100810183528154815260018201549381019390935260028101549183019190915260038101546001600160a01b039081166060840152600482015481166080840152600582015460a0840152600682015460c08401526007909101541660e0820152825183908390811061133457634e487b7160e01b600052603260045260246000fd5b6020026020010181905250808061134a90611a0d565b91505061125f565b50905090565b60055490565b60066020526000908152604090205481565b3360009081526020819052604090205490565b6000602052816000526040600020818154811061139f57600080fd5b90600052602060002001600091509150505481565b60405180606001604052806000815260200160006001600160a01b03168152602001600081525090565b60405180610100016040528060008152602001600081526020016000815260200160006001600160a01b0316815260200160006001600160a01b03168152602001600081526020016000815260200160006001600160a01b031681525090565b80356001600160a01b038116811461145557600080fd5b919050565b60006020828403121561146b578081fd5b610b6a8261143e565b60008060008060006080868803121561148b578081fd5b6114948661143e565b94506114a26020870161143e565b935060408601359250606086013567ffffffffffffffff808211156114c5578283fd5b818801915088601f8301126114d8578283fd5b8135818111156114e6578384fd5b8960208285010111156114f7578384fd5b9699959850939650602001949392505050565b6000806040838503121561151c578182fd5b6115258361143e565b946020939093013593505050565b600080600060608486031215611547578283fd5b6115508461143e565b95602085013595506040909401359392505050565b600060208284031215611576578081fd5b5035919050565b60006020828403121561158e578081fd5b5051919050565b60008251815b818110156115b5576020818601810151858301520161159b565b818111156115c35782828501525b509190910192915050565b6001600160a01b039384168152919092166020820152604081019190915260600190565b6001600160a01b03929092168252602082015260400190565b6001600160a01b03958616815260208101949094529190931660408301526060820192909252608081019190915260a00190565b602080825282518282018190526000919060409081850190868401855b828110156116d057815180518552868101518786015285810151868601526060808201516001600160a01b039081169187019190915260808083015182169087015260a0808301519087015260c0808301519087015260e0918201511690850152610100909301929085019060010161165c565b5091979650505050505050565b602080825282518282018190526000919060409081850190868401855b828110156116d057815180518552868101516001600160a01b03168786015285015185850152606090930192908501906001016116fa565b901515815260200190565b90815260200190565b7fffffffff0000000000000000000000000000000000000000000000000000000091909116815260200190565b6020808252601d908201527f75736572206e6f74206465706f7369746564207468697320746f6b656e000000604082015260600190565b6020808252600d908201527f746f6f206c6f7720707269636500000000000000000000000000000000000000604082015260600190565b6020808252600a908201527f6e6f206465706f73697400000000000000000000000000000000000000000000604082015260600190565b6020808252600c908201527f746f6b656e206c6f636b65640000000000000000000000000000000000000000604082015260600190565b6020808252600d908201527f707269636520746f6f206c6f7700000000000000000000000000000000000000604082015260600190565b6020808252600b908201527f62696420746f6f206c6f77000000000000000000000000000000000000000000604082015260600190565b60208082526012908201527f6e6f7420656e6f7567682062616c616e63650000000000000000000000000000604082015260600190565b60208082526011908201527f616c72656164792061756374696f6e6564000000000000000000000000000000604082015260600190565b6020808252600f908201527f6e6f7420746f6b656e206f776e65720000000000000000000000000000000000604082015260600190565b60208082526009908201527f6e6f7420656e6465640000000000000000000000000000000000000000000000604082015260600190565b978852602088019690965260408701949094526001600160a01b039283166060870152908216608086015260a085015260c08401919091521660e08201526101000190565b600082198211156119f1576119f1611a28565b500190565b600082821015611a0857611a08611a28565b500390565b6000600019821415611a2157611a21611a28565b5060010190565b634e487b7160e01b600052601160045260246000fdfea2646970667358221220dfe382df7703f247a42783edc767456d13e5e91dc54b5edc3770c9c95c25736664736f6c63430008010033",
  "linkReferences": {},
  "deployedLinkReferences": {}
}