{
  "_format": "hh-sol-artifact-1",
  "contractName": "MiranCore",
  "sourceName": "contracts/MiranCore.sol",
  "abi": [
    {
      "inputs": [],
      "stateMutability": "nonpayable",
      "type": "constructor"
    },
    {
      "anonymous": false,
      "inputs": [
        {
          "indexed": false,
          "internalType": "address",
          "name": "collectionAddress",
          "type": "address"
        },
        {
          "indexed": false,
          "internalType": "uint256",
          "name": "tokenId",
          "type": "uint256"
        },
        {
          "indexed": false,
          "internalType": "address",
          "name": "bidder",
          "type": "address"
        },
        {
          "indexed": false,
          "internalType": "uint256",
          "name": "price",
          "type": "uint256"
        },
        {
          "indexed": false,
          "internalType": "uint256",
          "name": "endingTime",
          "type": "uint256"
        }
      ],
      "name": "Bid",
      "type": "event"
    },
    {
      "anonymous": false,
      "inputs": [
        {
          "indexed": false,
          "internalType": "address",
          "name": "collectionAddress",
          "type": "address"
        },
        {
          "indexed": false,
          "internalType": "uint256",
          "name": "tokenId",
          "type": "uint256"
        },
        {
          "indexed": false,
          "internalType": "address",
          "name": "bidder",
          "type": "address"
        },
        {
          "indexed": false,
          "internalType": "uint256",
          "name": "price",
          "type": "uint256"
        }
      ],
      "name": "Claimed",
      "type": "event"
    },
    {
      "inputs": [],
      "name": "BASE_AUCTION_DURATION",
      "outputs": [
        {
          "internalType": "uint256",
          "name": "",
          "type": "uint256"
        }
      ],
      "stateMutability": "view",
      "type": "function"
    },
    {
      "inputs": [],
      "name": "BID_AUCTION_DURATION",
      "outputs": [
        {
          "internalType": "uint256",
          "name": "",
          "type": "uint256"
        }
      ],
      "stateMutability": "view",
      "type": "function"
    },
    {
      "inputs": [],
      "name": "MIN_REQUIRED_PRICE",
      "outputs": [
        {
          "internalType": "uint256",
          "name": "",
          "type": "uint256"
        }
      ],
      "stateMutability": "view",
      "type": "function"
    },
    {
      "inputs": [
        {
          "internalType": "bytes32",
          "name": "",
          "type": "bytes32"
        }
      ],
      "name": "auctionById",
      "outputs": [
        {
          "internalType": "uint256",
          "name": "index",
          "type": "uint256"
        },
        {
          "internalType": "uint256",
          "name": "creationTime",
          "type": "uint256"
        },
        {
          "internalType": "uint256",
          "name": "endingTime",
          "type": "uint256"
        },
        {
          "internalType": "address",
          "name": "creator",
          "type": "address"
        },
        {
          "internalType": "address",
          "name": "collectionAddress",
          "type": "address"
        },
        {
          "internalType": "uint256",
          "name": "tokenId",
          "type": "uint256"
        },
        {
          "internalType": "uint256",
          "name": "price",
          "type": "uint256"
        },
        {
          "internalType": "address",
          "name": "bidder",
          "type": "address"
        }
      ],
      "stateMutability": "view",
      "type": "function"
    },
    {
      "inputs": [
        {
          "internalType": "uint256",
          "name": "",
          "type": "uint256"
        }
      ],
      "name": "auctionsIds",
      "outputs": [
        {
          "internalType": "bytes32",
          "name": "",
          "type": "bytes32"
        }
      ],
      "stateMutability": "view",
      "type": "function"
    },
    {
      "inputs": [
        {
          "internalType": "address",
          "name": "",
          "type": "address"
        }
      ],
      "name": "balance",
      "outputs": [
        {
          "internalType": "uint256",
          "name": "",
          "type": "uint256"
        }
      ],
      "stateMutability": "view",
      "type": "function"
    },
    {
      "inputs": [
        {
          "internalType": "address",
          "name": "collectionAddress",
          "type": "address"
        },
        {
          "internalType": "uint256",
          "name": "tokenId",
          "type": "uint256"
        },
        {
          "internalType": "uint256",
          "name": "price",
          "type": "uint256"
        }
      ],
      "name": "bid",
      "outputs": [],
      "stateMutability": "payable",
      "type": "function"
    },
    {
      "inputs": [
        {
          "internalType": "address",
          "name": "collectionAddress",
          "type": "address"
        },
        {
          "internalType": "uint256",
          "name": "tokenId",
          "type": "uint256"
        }
      ],
      "name": "claimAuction",
      "outputs": [],
      "stateMutability": "nonpayable",
      "type": "function"
    },
    {
      "inputs": [
        {
          "internalType": "address",
          "name": "collectionAddress",
          "type": "address"
        },
        {
          "internalType": "uint256",
          "name": "tokenId",
          "type": "uint256"
        },
        {
          "internalType": "uint256",
          "name": "startingPrice",
          "type": "uint256"
        }
      ],
      "name": "createNewAuction",
      "outputs": [
        {
          "internalType": "bytes32",
          "name": "",
          "type": "bytes32"
        }
      ],
      "stateMutability": "payable",
      "type": "function"
    },
    {
      "inputs": [],
      "name": "deposit",
      "outputs": [],
      "stateMutability": "payable",
      "type": "function"
    },
    {
      "inputs": [],
      "name": "getAllAuctions",
      "outputs": [
        {
          "components": [
            {
              "internalType": "uint256",
              "name": "index",
              "type": "uint256"
            },
            {
              "internalType": "uint256",
              "name": "creationTime",
              "type": "uint256"
            },
            {
              "internalType": "uint256",
              "name": "endingTime",
              "type": "uint256"
            },
            {
              "internalType": "address",
              "name": "creator",
              "type": "address"
            },
            {
              "internalType": "address",
              "name": "collectionAddress",
              "type": "address"
            },
            {
              "internalType": "uint256",
              "name": "tokenId",
              "type": "uint256"
            },
            {
              "internalType": "uint256",
              "name": "price",
              "type": "uint256"
            },
            {
              "internalType": "address",
              "name": "bidder",
              "type": "address"
            }
          ],
          "internalType": "struct MiranCore.Auction[]",
          "name": "",
          "type": "tuple[]"
        }
      ],
      "stateMutability": "view",
      "type": "function"
    },
    {
      "inputs": [
        {
          "internalType": "address",
          "name": "collectionAddress",
          "type": "address"
        },
        {
          "internalType": "uint256",
          "name": "tokenId",
          "type": "uint256"
        }
      ],
      "name": "getAuctionId",
      "outputs": [
        {
          "internalType": "bytes32",
          "name": "",
          "type": "bytes32"
        }
      ],
      "stateMutability": "pure",
      "type": "function"
    },
    {
      "inputs": [],
      "name": "getAuctionsLength",
      "outputs": [
        {
          "internalType": "uint256",
          "name": "",
          "type": "uint256"
        }
      ],
      "stateMutability": "view",
      "type": "function"
    },
    {
      "inputs": [],
      "name": "getUserTokenLength",
      "outputs": [
        {
          "internalType": "uint256",
          "name": "",
          "type": "uint256"
        }
      ],
      "stateMutability": "view",
      "type": "function"
    },
    {
      "inputs": [],
      "name": "getUserTokens",
      "outputs": [
        {
          "components": [
            {
              "internalType": "uint256",
              "name": "index",
              "type": "uint256"
            },
            {
              "internalType": "address",
              "name": "collectionAddress",
              "type": "address"
            },
            {
              "internalType": "uint256",
              "name": "tokenId",
              "type": "uint256"
            }
          ],
          "internalType": "struct MiranCore.TokenDetails[]",
          "name": "",
          "type": "tuple[]"
        }
      ],
      "stateMutability": "view",
      "type": "function"
    },
    {
      "inputs": [
        {
          "internalType": "address",
          "name": "",
          "type": "address"
        },
        {
          "internalType": "uint256",
          "name": "",
          "type": "uint256"
        }
      ],
      "name": "isTokenLocked",
      "outputs": [
        {
          "internalType": "bool",
          "name": "",
          "type": "bool"
        }
      ],
      "stateMutability": "view",
      "type": "function"
    },
    {
      "inputs": [
        {
          "internalType": "address",
          "name": "operator",
          "type": "address"
        },
        {
          "internalType": "address",
          "name": "from",
          "type": "address"
        },
        {
          "internalType": "uint256",
          "name": "tokenId",
          "type": "uint256"
        },
        {
          "internalType": "bytes",
          "name": "",
          "type": "bytes"
        }
      ],
      "name": "onERC721Received",
      "outputs": [
        {
          "internalType": "bytes4",
          "name": "",
          "type": "bytes4"
        }
      ],
      "stateMutability": "nonpayable",
      "type": "function"
    },
    {
      "inputs": [
        {
          "internalType": "address",
          "name": "",
          "type": "address"
        }
      ],
      "name": "userAuction",
      "outputs": [
        {
          "internalType": "bytes32",
          "name": "",
          "type": "bytes32"
        }
      ],
      "stateMutability": "view",
      "type": "function"
    },
    {
      "inputs": [
        {
          "internalType": "address",
          "name": "",
          "type": "address"
        },
        {
          "internalType": "uint256",
          "name": "",
          "type": "uint256"
        }
      ],
      "name": "userTokens",
      "outputs": [
        {
          "internalType": "bytes32",
          "name": "",
          "type": "bytes32"
        }
      ],
      "stateMutability": "view",
      "type": "function"
    },
    {
      "inputs": [
        {
          "internalType": "uint256",
          "name": "amount",
          "type": "uint256"
        }
      ],
      "name": "withdraw",
      "outputs": [],
      "stateMutability": "nonpayable",
      "type": "function"
    },
    {
      "inputs": [
        {
          "internalType": "address",
          "name": "collectionAddress",
          "type": "address"
        },
        {
          "internalType": "uint256",
          "name": "tokenId",
          "type": "uint256"
        }
      ],
      "name": "withdrawToken",
      "outputs": [],
      "stateMutability": "nonpayable",
      "type": "function"
    }
  ],
  "bytecode": "0x608060405262093a80600755614650600855600160095534801561002257600080fd5b506119f8806100326000396000f3fe60806040526004361061016a5760003560e01c80637ae1ccf9116100cb578063cbd2bdfd1161007f578063e3d670d711610059578063e3d670d71461039b578063f1b3cc82146103bb578063f9f411d8146103d05761016a565b8063cbd2bdfd1461035c578063d0e30db01461037e578063dbe35007146103865761016a565b80638cc72182116100b05780638cc72182146103075780639e281a9814610327578063a8966043146103475761016a565b80637ae1ccf9146102b85780638a664ebc146102e55761016a565b806336fef8681161012257806354d70aef1161010757806354d70aef1461026e578063561944d61461028357806373177dca146102a35761016a565b806336fef8681461023b5780633ff9d3261461024e5761016a565b80632353f37b116101535780632353f37b146101ba57806325b713b4146101ee5780632e1a7d4d1461021b5761016a565b80630f41ba4b1461016f578063150b7a0214610184575b600080fd5b61018261017d36600461142c565b6103f0565b005b34801561019057600080fd5b506101a461019f366004611367565b610602565b6040516101b1919061160d565b60405180910390f35b3480156101c657600080fd5b506101da6101d5366004611460565b610706565b6040516101b1989796959493929190611905565b3480156101fa57600080fd5b5061020e610209366004611460565b610757565b6040516101b19190611604565b34801561022757600080fd5b50610182610236366004611460565b610778565b61020e61024936600461142c565b6107fb565b34801561025a57600080fd5b5061020e610269366004611401565b6109b0565b34801561027a57600080fd5b5061020e610a28565b34801561028f57600080fd5b5061018261029e366004611401565b610a2e565b3480156102af57600080fd5b5061020e610c50565b3480156102c457600080fd5b506102d86102d3366004611401565b610c56565b6040516101b191906115f9565b3480156102f157600080fd5b506102fa610c76565b6040516101b191906115a4565b34801561031357600080fd5b5061020e61032236600461132f565b610db9565b34801561033357600080fd5b50610182610342366004611401565b610dcb565b34801561035357600080fd5b5061020e611096565b34801561036857600080fd5b5061037161109c565b6040516101b19190611506565b610182611203565b34801561039257600080fd5b5061020e611249565b3480156103a757600080fd5b5061020e6103b636600461132f565b61124f565b3480156103c757600080fd5b5061020e611261565b3480156103dc57600080fd5b5061020e6103eb366004611401565b611274565b60006103fc84846109b0565b6000818152600560205260409020600301549091506001600160a01b03163314156104425760405162461bcd60e51b815260040161043990611671565b60405180910390fd5b6000818152600560205260409020600701546001600160a01b031633141561047c5760405162461bcd60e51b815260040161043990611829565b336000908152600660205260409020548290610498903461194a565b10156104b65760405162461bcd60e51b8152600401610439906117bb565b60008181526005602052604090206006015482116104e65760405162461bcd60e51b81526004016104399061174d565b60008181526005602090815260408083206006808201546007909201546001600160a01b03168552909252822080549192909161052490849061194a565b90915550503482116105645761053a8234611962565b336000908152600660205260408120805490919061055990849061194a565b9091555061059b9050565b60006105703484611962565b33600090815260066020526040812080549293508392909190610594908490611962565b9091555050505b6000818152600560205260409020600681018390556007810180546001600160a01b0319163317905560020154614650906105d7904290611962565b10156105fc576105e94261465061194a565b6000828152600560205260409020600201555b50505050565b336000818152600360209081526040808320878452909152812080546001600160a01b0319166001600160a01b03881617905590819061064290866109b0565b3360008181526001602081815260408084208054808501825581865292852090920186905593909252905482516060810190935292935081906106859084611962565b815233602080830191909152604091820198909852600093845260028089529381902082518155978201516001890180546001600160a01b0319166001600160a01b0390921691909117905501519590910194909455507f150b7a020000000000000000000000000000000000000000000000000000000095945050505050565b6005602081905260009182526040909120805460018201546002830154600384015460048501549585015460068601546007909601549496939592946001600160a01b039283169483169391921688565b600a818154811061076757600080fd5b600091825260209091200154905081565b3360009081526006602052604090205481106107a65760405162461bcd60e51b8152600401610439906117f2565b33600090815260066020526040812080548392906107c5908490611962565b9091555050604051339082156108fc029083906000818181858888f193505050501580156107f7573d6000803e3d6000fd5b5050565b6000600954821161081e5760405162461bcd60e51b8152600401610439906116a8565b600061082a85856109b0565b6001600160a01b038616600090815260046020908152604080832088845290915290205490915060ff16156108715760405162461bcd60e51b815260040161043990611897565b600a546040805161010081018252828152426020820181905260075460009383019161089d919061194a565b8152336020808301919091526001600160a01b038a8116604080850182905260608086018d905260808087018d9052600060a0978801819052600a805460018181019092557fc65a7bb8d6351c1cf70c95a316cc6a92839c986682d98bc35f958f4883f9d2a8018d90558c825260058089528583208b5181558b8a0151818401558b8701516002820155948b0151600386018054918a166001600160a01b0319928316179055938b015160048087018054928b1692871692909217909155998b01519085015560c08a0151600685015560e090990151600790930180549390961692909116919091179093559082529282528281208a825290915220805460ff1916909117905550909150509392505050565b6000600283836040516020016109c79291906114ed565b60408051601f19818403018152908290526109e191611490565b602060405180830381855afa1580156109fe573d6000803e3d6000fd5b5050506040513d601f19601f82011682018060405250810190610a219190611478565b9392505050565b60075481565b6000610a3a83836109b0565b6000818152600560205260409020600201549091504211610a6d5760405162461bcd60e51b8152600401610439906118ce565b6000818152600560205260409020600701546001600160a01b03163314610aa65760405162461bcd60e51b815260040161043990611784565b600081815260056020818152604080842060078101546001600160a01b03898116808852600386528488208a8952865284882080546001600160a01b03191692909316919091179091558552600483528185208786528352908420805460ff19169055928490525254600a805490610b1f600183611962565b81548110610b3d57634e487b7160e01b600052603260045260246000fd5b9060005260206000200154600a8381548110610b6957634e487b7160e01b600052603260045260246000fd5b600091825260209091200155600a805480610b9457634e487b7160e01b600052603160045260246000fd5b600190038181906000526020600020016000905590558160056000600a600185610bbe9190611962565b81548110610bdc57634e487b7160e01b600052603260045260246000fd5b9060005260206000200154815260200190815260200160002060000181905550610c068585610dcb565b60008381526005602090815260408083206006808201546003909201546001600160a01b031685529092528220805491929091610c4490849061194a565b90915550505050505050565b60095481565b600460209081526000928352604080842090915290825290205460ff1681565b336000908152600160205260408120546060918167ffffffffffffffff811115610cb057634e487b7160e01b600052604160045260246000fd5b604051908082528060200260200182016040528015610ce957816020015b610cd66112a5565b815260200190600190039081610cce5790505b50905060005b82811015610db2573360009081526001602052604081208054600292919084908110610d2b57634e487b7160e01b600052603260045260246000fd5b60009182526020808320909101548352828101939093526040918201902081516060810183528154815260018201546001600160a01b03169381019390935260020154908201528251839083908110610d9457634e487b7160e01b600052603260045260246000fd5b60200260200101819052508080610daa90611979565b915050610cef565b5091505090565b60006020819052908152604090205481565b6040517f6352211e00000000000000000000000000000000000000000000000000000000815230906001600160a01b03841690636352211e90610e12908590600401611604565b60206040518083038186803b158015610e2a57600080fd5b505afa158015610e3e573d6000803e3d6000fd5b505050506040513d601f19601f82011682018060405250810190610e62919061134b565b6001600160a01b031614610e885760405162461bcd60e51b815260040161043990611860565b6001600160a01b038281166000908152600360209081526040808320858452909152902054163314610ecc5760405162461bcd60e51b81526004016104399061163a565b6001600160a01b038216600090815260046020908152604080832084845290915290205460ff1615610f105760405162461bcd60e51b815260040161043990611716565b6001600160a01b0382166000908152600360209081526040808320848452825280832080546001600160a01b0319169055338352600190915281205490610f5784846109b0565b6000818152600260209081526040808320543384526001928390529220929350909190610f849085611962565b81548110610fa257634e487b7160e01b600052603260045260246000fd5b600091825260208083209091015433835260019091526040909120805483908110610fdd57634e487b7160e01b600052603260045260246000fd5b600091825260208083209091019290925533815260019091526040902080548061101757634e487b7160e01b600052603160045260246000fd5b60019003818190600052602060002001600090559055846001600160a01b03166342842e0e3033876040518463ffffffff1660e01b815260040161105d939291906114c9565b600060405180830381600087803b15801561107757600080fd5b505af115801561108b573d6000803e3d6000fd5b505050505050505050565b60085481565b600a5460609060009067ffffffffffffffff8111156110cb57634e487b7160e01b600052604160045260246000fd5b60405190808252806020026020018201604052801561110457816020015b6110f16112cf565b8152602001906001900390816110e95790505b50905060005b600a548110156111fd5760056000600a838154811061113957634e487b7160e01b600052603260045260246000fd5b6000918252602080832090910154835282810193909352604091820190208151610100810183528154815260018201549381019390935260028101549183019190915260038101546001600160a01b039081166060840152600482015481166080840152600582015460a0840152600682015460c08401526007909101541660e082015282518390839081106111df57634e487b7160e01b600052603260045260246000fd5b602002602001018190525080806111f590611979565b91505061110a565b50905090565b600034116112235760405162461bcd60e51b8152600401610439906116df565b336000908152600660205260408120805434929061124290849061194a565b9091555050565b600a5490565b60066020526000908152604090205481565b3360009081526001602052604090205490565b6001602052816000526040600020818154811061129057600080fd5b90600052602060002001600091509150505481565b60405180606001604052806000815260200160006001600160a01b03168152602001600081525090565b60405180610100016040528060008152602001600081526020016000815260200160006001600160a01b0316815260200160006001600160a01b03168152602001600081526020016000815260200160006001600160a01b031681525090565b600060208284031215611340578081fd5b8135610a21816119aa565b60006020828403121561135c578081fd5b8151610a21816119aa565b60008060008060006080868803121561137e578081fd5b8535611389816119aa565b94506020860135611399816119aa565b935060408601359250606086013567ffffffffffffffff808211156113bc578283fd5b818801915088601f8301126113cf578283fd5b8135818111156113dd578384fd5b8960208285010111156113ee578384fd5b9699959850939650602001949392505050565b60008060408385031215611413578182fd5b823561141e816119aa565b946020939093013593505050565b600080600060608486031215611440578283fd5b833561144b816119aa565b95602085013595506040909401359392505050565b600060208284031215611471578081fd5b5035919050565b600060208284031215611489578081fd5b5051919050565b60008251815b818110156114b05760208186018101518583015201611496565b818111156114be5782828501525b509190910192915050565b6001600160a01b039384168152919092166020820152604081019190915260600190565b6001600160a01b03929092168252602082015260400190565b602080825282518282018190526000919060409081850190868401855b8281101561159757815180518552868101518786015285810151868601526060808201516001600160a01b039081169187019190915260808083015182169087015260a0808301519087015260c0808301519087015260e09182015116908501526101009093019290850190600101611523565b5091979650505050505050565b602080825282518282018190526000919060409081850190868401855b8281101561159757815180518552868101516001600160a01b03168786015285015185850152606090930192908501906001016115c1565b901515815260200190565b90815260200190565b7fffffffff0000000000000000000000000000000000000000000000000000000091909116815260200190565b6020808252601d908201527f75736572206e6f74206465706f7369746564207468697320746f6b656e000000604082015260600190565b60208082526018908201527f63616e6e6f742062696420796f75722061756374696f6e730000000000000000604082015260600190565b6020808252600d908201527f746f6f206c6f7720707269636500000000000000000000000000000000000000604082015260600190565b6020808252600a908201527f6e6f206465706f73697400000000000000000000000000000000000000000000604082015260600190565b6020808252600c908201527f746f6b656e206c6f636b65640000000000000000000000000000000000000000604082015260600190565b6020808252600d908201527f707269636520746f6f206c6f7700000000000000000000000000000000000000604082015260600190565b6020808252600b908201527f6f6e6c792077696e6e6572000000000000000000000000000000000000000000604082015260600190565b6020808252600b908201527f62696420746f6f206c6f77000000000000000000000000000000000000000000604082015260600190565b60208082526012908201527f6e6f7420656e6f7567682062616c616e63650000000000000000000000000000604082015260600190565b60208082526017908201527f63616e6e6f74206f75742062696420796f757273656c66000000000000000000604082015260600190565b60208082526012908201527f636f6e7472616374206e6f74206f776e65720000000000000000000000000000604082015260600190565b60208082526011908201527f616c72656164792061756374696f6e6564000000000000000000000000000000604082015260600190565b60208082526009908201527f6e6f7420656e6465640000000000000000000000000000000000000000000000604082015260600190565b978852602088019690965260408701949094526001600160a01b039283166060870152908216608086015260a085015260c08401919091521660e08201526101000190565b6000821982111561195d5761195d611994565b500190565b60008282101561197457611974611994565b500390565b600060001982141561198d5761198d611994565b5060010190565b634e487b7160e01b600052601160045260246000fd5b6001600160a01b03811681146119bf57600080fd5b5056fea26469706673582212203ed79a4e9c820e9967a0ac8241206bcb08ff25058d2d274483fb46457ad7d26f64736f6c63430008010033",
  "linkReferences": {},
  "deployedLinkReferences": {}
}