{
  "_format": "hh-sol-artifact-1",
  "contractName": "MiranCore",
  "sourceName": "contracts/MiranCore.sol",
  "abi": [
    {
      "inputs": [],
      "stateMutability": "nonpayable",
      "type": "constructor"
    },
    {
      "anonymous": false,
      "inputs": [
        {
          "indexed": false,
          "internalType": "address",
          "name": "collectionAddress",
          "type": "address"
        },
        {
          "indexed": false,
          "internalType": "uint256",
          "name": "tokenId",
          "type": "uint256"
        },
        {
          "indexed": false,
          "internalType": "address",
          "name": "bidder",
          "type": "address"
        },
        {
          "indexed": false,
          "internalType": "uint256",
          "name": "price",
          "type": "uint256"
        },
        {
          "indexed": false,
          "internalType": "uint256",
          "name": "endingTime",
          "type": "uint256"
        }
      ],
      "name": "Bid",
      "type": "event"
    },
    {
      "anonymous": false,
      "inputs": [
        {
          "indexed": false,
          "internalType": "address",
          "name": "collectionAddress",
          "type": "address"
        },
        {
          "indexed": false,
          "internalType": "uint256",
          "name": "tokenId",
          "type": "uint256"
        },
        {
          "indexed": false,
          "internalType": "address",
          "name": "bidder",
          "type": "address"
        },
        {
          "indexed": false,
          "internalType": "uint256",
          "name": "price",
          "type": "uint256"
        }
      ],
      "name": "Claimed",
      "type": "event"
    },
    {
      "inputs": [],
      "name": "BASE_AUCTION_DURATION",
      "outputs": [
        {
          "internalType": "uint256",
          "name": "",
          "type": "uint256"
        }
      ],
      "stateMutability": "view",
      "type": "function"
    },
    {
      "inputs": [],
      "name": "BID_AUCTION_DURATION",
      "outputs": [
        {
          "internalType": "uint256",
          "name": "",
          "type": "uint256"
        }
      ],
      "stateMutability": "view",
      "type": "function"
    },
    {
      "inputs": [],
      "name": "MIN_REQUIRED_PRICE",
      "outputs": [
        {
          "internalType": "uint256",
          "name": "",
          "type": "uint256"
        }
      ],
      "stateMutability": "view",
      "type": "function"
    },
    {
      "inputs": [
        {
          "internalType": "bytes32",
          "name": "",
          "type": "bytes32"
        }
      ],
      "name": "auctionById",
      "outputs": [
        {
          "internalType": "uint256",
          "name": "index",
          "type": "uint256"
        },
        {
          "internalType": "uint256",
          "name": "creationTime",
          "type": "uint256"
        },
        {
          "internalType": "uint256",
          "name": "endingTime",
          "type": "uint256"
        },
        {
          "internalType": "address",
          "name": "creator",
          "type": "address"
        },
        {
          "internalType": "address",
          "name": "collectionAddress",
          "type": "address"
        },
        {
          "internalType": "uint256",
          "name": "tokenId",
          "type": "uint256"
        },
        {
          "internalType": "uint256",
          "name": "price",
          "type": "uint256"
        },
        {
          "internalType": "address",
          "name": "bidder",
          "type": "address"
        }
      ],
      "stateMutability": "view",
      "type": "function"
    },
    {
      "inputs": [
        {
          "internalType": "uint256",
          "name": "",
          "type": "uint256"
        }
      ],
      "name": "auctionsIds",
      "outputs": [
        {
          "internalType": "bytes32",
          "name": "",
          "type": "bytes32"
        }
      ],
      "stateMutability": "view",
      "type": "function"
    },
    {
      "inputs": [
        {
          "internalType": "address",
          "name": "",
          "type": "address"
        }
      ],
      "name": "balance",
      "outputs": [
        {
          "internalType": "uint256",
          "name": "",
          "type": "uint256"
        }
      ],
      "stateMutability": "view",
      "type": "function"
    },
    {
      "inputs": [
        {
          "internalType": "address",
          "name": "collectionAddress",
          "type": "address"
        },
        {
          "internalType": "uint256",
          "name": "tokenId",
          "type": "uint256"
        },
        {
          "internalType": "uint256",
          "name": "price",
          "type": "uint256"
        }
      ],
      "name": "bid",
      "outputs": [],
      "stateMutability": "payable",
      "type": "function"
    },
    {
      "inputs": [
        {
          "internalType": "address",
          "name": "collectionAddress",
          "type": "address"
        },
        {
          "internalType": "uint256",
          "name": "tokenId",
          "type": "uint256"
        }
      ],
      "name": "claimAuction",
      "outputs": [],
      "stateMutability": "nonpayable",
      "type": "function"
    },
    {
      "inputs": [
        {
          "internalType": "address",
          "name": "collectionAddress",
          "type": "address"
        },
        {
          "internalType": "uint256",
          "name": "tokenId",
          "type": "uint256"
        },
        {
          "internalType": "uint256",
          "name": "startingPrice",
          "type": "uint256"
        }
      ],
      "name": "createNewAuction",
      "outputs": [
        {
          "internalType": "bytes32",
          "name": "",
          "type": "bytes32"
        }
      ],
      "stateMutability": "payable",
      "type": "function"
    },
    {
      "inputs": [],
      "name": "deposit",
      "outputs": [],
      "stateMutability": "payable",
      "type": "function"
    },
    {
      "inputs": [],
      "name": "getAllAuctions",
      "outputs": [
        {
          "components": [
            {
              "internalType": "uint256",
              "name": "index",
              "type": "uint256"
            },
            {
              "internalType": "uint256",
              "name": "creationTime",
              "type": "uint256"
            },
            {
              "internalType": "uint256",
              "name": "endingTime",
              "type": "uint256"
            },
            {
              "internalType": "address",
              "name": "creator",
              "type": "address"
            },
            {
              "internalType": "address",
              "name": "collectionAddress",
              "type": "address"
            },
            {
              "internalType": "uint256",
              "name": "tokenId",
              "type": "uint256"
            },
            {
              "internalType": "uint256",
              "name": "price",
              "type": "uint256"
            },
            {
              "internalType": "address",
              "name": "bidder",
              "type": "address"
            }
          ],
          "internalType": "struct MiranCore.Auction[]",
          "name": "",
          "type": "tuple[]"
        }
      ],
      "stateMutability": "view",
      "type": "function"
    },
    {
      "inputs": [
        {
          "internalType": "address",
          "name": "collectionAddress",
          "type": "address"
        },
        {
          "internalType": "uint256",
          "name": "tokenId",
          "type": "uint256"
        }
      ],
      "name": "getAuctionId",
      "outputs": [
        {
          "internalType": "bytes32",
          "name": "",
          "type": "bytes32"
        }
      ],
      "stateMutability": "pure",
      "type": "function"
    },
    {
      "inputs": [],
      "name": "getAuctionsLength",
      "outputs": [
        {
          "internalType": "uint256",
          "name": "",
          "type": "uint256"
        }
      ],
      "stateMutability": "view",
      "type": "function"
    },
    {
      "inputs": [],
      "name": "getUserBalance",
      "outputs": [
        {
          "internalType": "uint256",
          "name": "",
          "type": "uint256"
        }
      ],
      "stateMutability": "view",
      "type": "function"
    },
    {
      "inputs": [],
      "name": "getUserTokenLength",
      "outputs": [
        {
          "internalType": "uint256",
          "name": "",
          "type": "uint256"
        }
      ],
      "stateMutability": "view",
      "type": "function"
    },
    {
      "inputs": [],
      "name": "getUserTokens",
      "outputs": [
        {
          "components": [
            {
              "internalType": "uint256",
              "name": "index",
              "type": "uint256"
            },
            {
              "internalType": "address",
              "name": "collectionAddress",
              "type": "address"
            },
            {
              "internalType": "uint256",
              "name": "tokenId",
              "type": "uint256"
            }
          ],
          "internalType": "struct MiranCore.TokenDetails[]",
          "name": "",
          "type": "tuple[]"
        }
      ],
      "stateMutability": "view",
      "type": "function"
    },
    {
      "inputs": [
        {
          "internalType": "address",
          "name": "",
          "type": "address"
        },
        {
          "internalType": "uint256",
          "name": "",
          "type": "uint256"
        }
      ],
      "name": "isTokenLocked",
      "outputs": [
        {
          "internalType": "bool",
          "name": "",
          "type": "bool"
        }
      ],
      "stateMutability": "view",
      "type": "function"
    },
    {
      "inputs": [
        {
          "internalType": "address",
          "name": "operator",
          "type": "address"
        },
        {
          "internalType": "address",
          "name": "from",
          "type": "address"
        },
        {
          "internalType": "uint256",
          "name": "tokenId",
          "type": "uint256"
        },
        {
          "internalType": "bytes",
          "name": "",
          "type": "bytes"
        }
      ],
      "name": "onERC721Received",
      "outputs": [
        {
          "internalType": "bytes4",
          "name": "",
          "type": "bytes4"
        }
      ],
      "stateMutability": "nonpayable",
      "type": "function"
    },
    {
      "inputs": [
        {
          "internalType": "address",
          "name": "",
          "type": "address"
        }
      ],
      "name": "userAuction",
      "outputs": [
        {
          "internalType": "bytes32",
          "name": "",
          "type": "bytes32"
        }
      ],
      "stateMutability": "view",
      "type": "function"
    },
    {
      "inputs": [
        {
          "internalType": "address",
          "name": "",
          "type": "address"
        },
        {
          "internalType": "uint256",
          "name": "",
          "type": "uint256"
        }
      ],
      "name": "userTokens",
      "outputs": [
        {
          "internalType": "bytes32",
          "name": "",
          "type": "bytes32"
        }
      ],
      "stateMutability": "view",
      "type": "function"
    },
    {
      "inputs": [
        {
          "internalType": "uint256",
          "name": "amount",
          "type": "uint256"
        }
      ],
      "name": "withdraw",
      "outputs": [],
      "stateMutability": "nonpayable",
      "type": "function"
    },
    {
      "inputs": [
        {
          "internalType": "address",
          "name": "collectionAddress",
          "type": "address"
        },
        {
          "internalType": "uint256",
          "name": "tokenId",
          "type": "uint256"
        }
      ],
      "name": "withdrawToken",
      "outputs": [],
      "stateMutability": "nonpayable",
      "type": "function"
    }
  ],
  "bytecode": "0x608060405262093a80600755614650600855600160095534801561002257600080fd5b50612133806100326000396000f3fe6080604052600436106101755760003560e01c80638a664ebc116100cb578063cbd2bdfd1161007f578063e3d670d711610059578063e3d670d7146103bb578063f1b3cc82146103db578063f9f411d8146103f057610175565b8063cbd2bdfd1461037c578063d0e30db01461039e578063dbe35007146103a657610175565b80639e281a98116100b05780639e281a9814610332578063a896604314610352578063b7013dc11461036757610175565b80638a664ebc146102f05780638cc721821461031257610175565b806336fef8681161012d578063561944d611610107578063561944d61461028e57806373177dca146102ae5780637ae1ccf9146102c357610175565b806336fef868146102465780633ff9d3261461025957806354d70aef1461027957610175565b80632353f37b1161015e5780632353f37b146101c557806325b713b4146101f95780632e1a7d4d1461022657610175565b80630f41ba4b1461017a578063150b7a021461018f575b600080fd5b61018d610188366004611abb565b610410565b005b34801561019b57600080fd5b506101af6101aa3660046119f6565b610622565b6040516101bc9190611cbf565b60405180910390f35b3480156101d157600080fd5b506101e56101e0366004611aef565b6109dc565b6040516101bc989796959493929190612017565b34801561020557600080fd5b50610219610214366004611aef565b610a2d565b6040516101bc9190611cb6565b34801561023257600080fd5b5061018d610241366004611aef565b610a4e565b610219610254366004611abb565b610ad1565b34801561026557600080fd5b50610219610274366004611a90565b610cc4565b34801561028557600080fd5b50610219610d3c565b34801561029a57600080fd5b5061018d6102a9366004611a90565b610d42565b3480156102ba57600080fd5b50610219610f64565b3480156102cf57600080fd5b506102e36102de366004611a90565b610f6a565b6040516101bc9190611cab565b3480156102fc57600080fd5b50610305610f8a565b6040516101bc9190611c56565b34801561031e57600080fd5b5061021961032d3660046119be565b6111e9565b34801561033e57600080fd5b5061018d61034d366004611a90565b6111fb565b34801561035e57600080fd5b506102196114c6565b34801561037357600080fd5b506102196114cc565b34801561038857600080fd5b506103916114df565b6040516101bc9190611bb8565b61018d611646565b3480156103b257600080fd5b5061021961168c565b3480156103c757600080fd5b506102196103d63660046119be565b611692565b3480156103e757600080fd5b506102196116a4565b3480156103fc57600080fd5b5061021961040b366004611a90565b6116b7565b600061041c8484610cc4565b6000818152600560205260409020600301549091506001600160a01b03163314156104625760405162461bcd60e51b815260040161045990611d83565b60405180910390fd5b6000818152600560205260409020600701546001600160a01b031633141561049c5760405162461bcd60e51b815260040161045990611f3b565b3360009081526006602052604090205482906104b8903461205c565b10156104d65760405162461bcd60e51b815260040161045990611ecd565b60008181526005602052604090206006015482116105065760405162461bcd60e51b815260040161045990611e5f565b60008181526005602090815260408083206006808201546007909201546001600160a01b03168552909252822080549192909161054490849061205c565b90915550503482116105845761055a8234612074565b336000908152600660205260408120805490919061057990849061205c565b909155506105bb9050565b60006105903484612074565b336000908152600660205260408120805492935083929091906105b4908490612074565b9091555050505b6000818152600560205260409020600681018390556007810180546001600160a01b0319163317905560020154614650906105f7904290612074565b101561061c576106094261465061205c565b6000828152600560205260409020600201555b50505050565b60006106626040518060400160405280600781526020017f2d2d2d2d2d2d2d000000000000000000000000000000000000000000000000008152506116e8565b6106a16040518060400160405280600e81526020017f4f70657261746f72202d3e20257300000000000000000000000000000000000081525087611747565b6106e06040518060400160405280600a81526020017f66726f6d202d3e2025730000000000000000000000000000000000000000000081525086611747565b61070f6040518060400160405280600d81526020016c746f6b656e4964202d3e20257360981b815250856117a5565b61074e6040518060400160405280601081526020017f6d73672e73656e646572202d3e2025730000000000000000000000000000000081525033611747565b336000818152600360209081526040808320888452909152812080546001600160a01b0319166001600160a01b0389161790559061078c9086610cc4565b3360008181526001602081815260408084208054808501825581865292852090920186905593909252905482516060810190935292935081906107cf9084612074565b815233602080830182905260409283018a9052600086815260028083528482208651815586840151600180830180546001600160a01b0319166001600160a01b0390931692909217909155968601519101559182529290925281208054829061084857634e487b7160e01b600052603260045260246000fd5b9060005260206000200154905061085e81611803565b61086783611803565b6108bc6040518060400160405280600b81526020017f696e646578202d3e20257300000000000000000000000000000000000000000081525060026000868152602001908152602001600020600001546117a5565b604080518082018252601781527f636f6c6c656374696f6e41646472657373202d3e20257300000000000000000060208083019190915260008681526002909152919091206001015461091891906001600160a01b0316611747565b61095d6040518060400160405280600d81526020016c746f6b656e4964202d3e20257360981b81525060026000868152602001908152602001600020600201546117a5565b604080518082018252601781527f75736572546f6b656e73206c656e677468202d3e202573000000000000000000602080830191909152336000908152600190915291909120546109ae91906117a5565b507f150b7a020000000000000000000000000000000000000000000000000000000098975050505050505050565b6005602081905260009182526040909120805460018201546002830154600384015460048501549585015460068601546007909601549496939592946001600160a01b039283169483169391921688565b600a8181548110610a3d57600080fd5b600091825260209091200154905081565b336000908152600660205260409020548110610a7c5760405162461bcd60e51b815260040161045990611f04565b3360009081526006602052604081208054839290610a9b908490612074565b9091555050604051339082156108fc029083906000818181858888f19350505050158015610acd573d6000803e3d6000fd5b5050565b60006009548211610af45760405162461bcd60e51b815260040161045990611dba565b610b326040518060400160405280601881526020017f4372656174696e6720746865206e65772061756374696f6e00000000000000008152506116e8565b6000610b3e8585610cc4565b6001600160a01b038616600090815260046020908152604080832088845290915290205490915060ff1615610b855760405162461bcd60e51b815260040161045990611fa9565b600a5460408051610100810182528281524260208201819052600754600093830191610bb1919061205c565b8152336020808301919091526001600160a01b038a8116604080850182905260608086018d905260808087018d9052600060a0978801819052600a805460018181019092557fc65a7bb8d6351c1cf70c95a316cc6a92839c986682d98bc35f958f4883f9d2a8018d90558c825260058089528583208b5181558b8a0151818401558b8701516002820155948b0151600386018054918a166001600160a01b0319928316179055938b015160048087018054928b1692871692909217909155998b01519085015560c08a0151600685015560e090990151600790930180549390961692909116919091179093559082529282528281208a825290915220805460ff1916909117905550909150509392505050565b600060028383604051602001610cdb929190611b9f565b60408051601f1981840301815290829052610cf591611b4b565b602060405180830381855afa158015610d12573d6000803e3d6000fd5b5050506040513d601f19601f82011682018060405250810190610d359190611b07565b9392505050565b60075481565b6000610d4e8383610cc4565b6000818152600560205260409020600201549091504211610d815760405162461bcd60e51b815260040161045990611fe0565b6000818152600560205260409020600701546001600160a01b03163314610dba5760405162461bcd60e51b815260040161045990611e96565b600081815260056020818152604080842060078101546001600160a01b03898116808852600386528488208a8952865284882080546001600160a01b03191692909316919091179091558552600483528185208786528352908420805460ff19169055928490525254600a805490610e33600183612074565b81548110610e5157634e487b7160e01b600052603260045260246000fd5b9060005260206000200154600a8381548110610e7d57634e487b7160e01b600052603260045260246000fd5b600091825260209091200155600a805480610ea857634e487b7160e01b600052603160045260246000fd5b600190038181906000526020600020016000905590558160056000600a600185610ed29190612074565b81548110610ef057634e487b7160e01b600052603260045260246000fd5b9060005260206000200154815260200190815260200160002060000181905550610f1a85856111fb565b60008381526005602090815260408083206006808201546003909201546001600160a01b031685529092528220805491929091610f5890849061205c565b90915550505050505050565b60095481565b600460209081526000928352604080842090915290825290205460ff1681565b336000908152600160205260408120546060918167ffffffffffffffff811115610fc457634e487b7160e01b600052604160045260246000fd5b604051908082528060200260200182016040528015610ffd57816020015b610fea611934565b815260200190600190039081610fe25790505b50905061103e6040518060400160405280600b81526020017f2d2d2d2d2d2d2d2d2d2d2d0000000000000000000000000000000000000000008152506116e8565b61107c6040518060400160405280601381526020017f47657474696e67207573657220746f6b656e73000000000000000000000000008152506116e8565b6110858261185f565b61108e336118bb565b336000908152600160205260409020546110a79061185f565b33600090815260016020526040812080546110e792906110d757634e487b7160e01b600052603260045260246000fd5b9060005260206000200154611803565b60005b828110156111ad57336000908152600160205260408120805460029291908490811061112657634e487b7160e01b600052603260045260246000fd5b60009182526020808320909101548352828101939093526040918201902081516060810183528154815260018201546001600160a01b0316938101939093526002015490820152825183908390811061118f57634e487b7160e01b600052603260045260246000fd5b602002602001018190525080806111a5906120b7565b9150506110ea565b506111e3816000815181106111d257634e487b7160e01b600052603260045260246000fd5b60200260200101516040015161185f565b91505090565b60006020819052908152604090205481565b6040517f6352211e00000000000000000000000000000000000000000000000000000000815230906001600160a01b03841690636352211e90611242908590600401611cb6565b60206040518083038186803b15801561125a57600080fd5b505afa15801561126e573d6000803e3d6000fd5b505050506040513d601f19601f8201168201806040525081019061129291906119da565b6001600160a01b0316146112b85760405162461bcd60e51b815260040161045990611f72565b6001600160a01b0382811660009081526003602090815260408083208584529091529020541633146112fc5760405162461bcd60e51b815260040161045990611d4c565b6001600160a01b038216600090815260046020908152604080832084845290915290205460ff16156113405760405162461bcd60e51b815260040161045990611e28565b6001600160a01b0382166000908152600360209081526040808320848452825280832080546001600160a01b03191690553383526001909152812054906113878484610cc4565b60008181526002602090815260408083205433845260019283905292209293509091906113b49085612074565b815481106113d257634e487b7160e01b600052603260045260246000fd5b60009182526020808320909101543383526001909152604090912080548390811061140d57634e487b7160e01b600052603260045260246000fd5b600091825260208083209091019290925533815260019091526040902080548061144757634e487b7160e01b600052603160045260246000fd5b60019003818190600052602060002001600090559055846001600160a01b03166342842e0e3033876040518463ffffffff1660e01b815260040161148d93929190611b7b565b600060405180830381600087803b1580156114a757600080fd5b505af11580156114bb573d6000803e3d6000fd5b505050505050505050565b60085481565b3360009081526006602052604090205490565b600a5460609060009067ffffffffffffffff81111561150e57634e487b7160e01b600052604160045260246000fd5b60405190808252806020026020018201604052801561154757816020015b61153461195e565b81526020019060019003908161152c5790505b50905060005b600a548110156116405760056000600a838154811061157c57634e487b7160e01b600052603260045260246000fd5b6000918252602080832090910154835282810193909352604091820190208151610100810183528154815260018201549381019390935260028101549183019190915260038101546001600160a01b039081166060840152600482015481166080840152600582015460a0840152600682015460c08401526007909101541660e0820152825183908390811061162257634e487b7160e01b600052603260045260246000fd5b60200260200101819052508080611638906120b7565b91505061154d565b50905090565b600034116116665760405162461bcd60e51b815260040161045990611df1565b336000908152600660205260408120805434929061168590849061205c565b9091555050565b600a5490565b60066020526000908152604090205481565b3360009081526001602052604090205490565b600160205281600052604060002081815481106116d357600080fd5b90600052602060002001600091509150505481565b611744816040516024016116fc9190611cec565b60408051601f198184030181529190526020810180516001600160e01b03167f41304fac00000000000000000000000000000000000000000000000000000000179052611913565b50565b610acd828260405160240161175d929190611cff565b60408051601f198184030181529190526020810180516001600160e01b03167f319af33300000000000000000000000000000000000000000000000000000000179052611913565b610acd82826040516024016117bb929190611d2a565b60408051601f198184030181529190526020810180516001600160e01b03167f9710a9d000000000000000000000000000000000000000000000000000000000179052611913565b611744816040516024016118179190611cb6565b60408051601f198184030181529190526020810180516001600160e01b03167f27b7cf8500000000000000000000000000000000000000000000000000000000179052611913565b611744816040516024016118739190611cb6565b60408051601f198184030181529190526020810180516001600160e01b03167ff5b1bba900000000000000000000000000000000000000000000000000000000179052611913565b611744816040516024016118cf9190611b67565b60408051601f198184030181529190526020810180516001600160e01b03167f2c2ecbc2000000000000000000000000000000000000000000000000000000001790525b80516a636f6e736f6c652e6c6f67602083016000808483855afa5050505050565b60405180606001604052806000815260200160006001600160a01b03168152602001600081525090565b60405180610100016040528060008152602001600081526020016000815260200160006001600160a01b0316815260200160006001600160a01b03168152602001600081526020016000815260200160006001600160a01b031681525090565b6000602082840312156119cf578081fd5b8135610d35816120e8565b6000602082840312156119eb578081fd5b8151610d35816120e8565b600080600080600060808688031215611a0d578081fd5b8535611a18816120e8565b94506020860135611a28816120e8565b935060408601359250606086013567ffffffffffffffff80821115611a4b578283fd5b818801915088601f830112611a5e578283fd5b813581811115611a6c578384fd5b896020828501011115611a7d578384fd5b9699959850939650602001949392505050565b60008060408385031215611aa2578182fd5b8235611aad816120e8565b946020939093013593505050565b600080600060608486031215611acf578283fd5b8335611ada816120e8565b95602085013595506040909401359392505050565b600060208284031215611b00578081fd5b5035919050565b600060208284031215611b18578081fd5b5051919050565b60008151808452611b3781602086016020860161208b565b601f01601f19169290920160200192915050565b60008251611b5d81846020870161208b565b9190910192915050565b6001600160a01b0391909116815260200190565b6001600160a01b039384168152919092166020820152604081019190915260600190565b6001600160a01b03929092168252602082015260400190565b602080825282518282018190526000919060409081850190868401855b82811015611c4957815180518552868101518786015285810151868601526060808201516001600160a01b039081169187019190915260808083015182169087015260a0808301519087015260c0808301519087015260e09182015116908501526101009093019290850190600101611bd5565b5091979650505050505050565b602080825282518282018190526000919060409081850190868401855b82811015611c4957815180518552868101516001600160a01b0316878601528501518585015260609093019290850190600101611c73565b901515815260200190565b90815260200190565b7fffffffff0000000000000000000000000000000000000000000000000000000091909116815260200190565b600060208252610d356020830184611b1f565b600060408252611d126040830185611b1f565b90506001600160a01b03831660208301529392505050565b600060408252611d3d6040830185611b1f565b90508260208301529392505050565b6020808252601d908201527f75736572206e6f74206465706f7369746564207468697320746f6b656e000000604082015260600190565b60208082526018908201527f63616e6e6f742062696420796f75722061756374696f6e730000000000000000604082015260600190565b6020808252600d908201527f746f6f206c6f7720707269636500000000000000000000000000000000000000604082015260600190565b6020808252600a908201527f6e6f206465706f73697400000000000000000000000000000000000000000000604082015260600190565b6020808252600c908201527f746f6b656e206c6f636b65640000000000000000000000000000000000000000604082015260600190565b6020808252600d908201527f707269636520746f6f206c6f7700000000000000000000000000000000000000604082015260600190565b6020808252600b908201527f6f6e6c792077696e6e6572000000000000000000000000000000000000000000604082015260600190565b6020808252600b908201527f62696420746f6f206c6f77000000000000000000000000000000000000000000604082015260600190565b60208082526012908201527f6e6f7420656e6f7567682062616c616e63650000000000000000000000000000604082015260600190565b60208082526017908201527f63616e6e6f74206f75742062696420796f757273656c66000000000000000000604082015260600190565b60208082526012908201527f636f6e7472616374206e6f74206f776e65720000000000000000000000000000604082015260600190565b60208082526011908201527f616c72656164792061756374696f6e6564000000000000000000000000000000604082015260600190565b60208082526009908201527f6e6f7420656e6465640000000000000000000000000000000000000000000000604082015260600190565b978852602088019690965260408701949094526001600160a01b039283166060870152908216608086015260a085015260c08401919091521660e08201526101000190565b6000821982111561206f5761206f6120d2565b500190565b600082821015612086576120866120d2565b500390565b60005b838110156120a657818101518382015260200161208e565b8381111561061c5750506000910152565b60006000198214156120cb576120cb6120d2565b5060010190565b634e487b7160e01b600052601160045260246000fd5b6001600160a01b038116811461174457600080fdfea2646970667358221220e29b6de9fabea83ca04964e24aedd016edb0ed467d20229fc3ac7ed837310c0b64736f6c63430008010033",
  "linkReferences": {},
  "deployedLinkReferences": {}
}